:100000000C9466010C94870A0C94910A0C949B0A38
:100010000C94A50A0C94AF0A0C94B90A0C94EC1633
:100020000C94C30A0C9485010C9485010C94FE2950
:100030000C949C2B0C94510A0C94670A0C94C00FDE
:100040000C94400A0C94D21F0C948A0C0C948501D9
:100050000C94060D0C9485010C9485010C9485017B
:100060000C945C0A0C94590E0C94380E0C94430EAC
:100070000C944E0E0C946C0E0C941B0E0C9485017B
:100080000C942D0E0C9485010C948501A420A820BD
:10009000B520B920BD20C420FE20022106210A215E
:1000A000E12514266826782688204B2759273928E9
:1000B0003C288F209A20722880286229742976296A
:1000C00079297C299D290000211042206330844039
:1000D000A550C660E770088129914AA16BB18CC117
:1000E000ADD1CEE1EFF13112100273325222B5528E
:1000F0009442F772D662399318837BB35AA3BDD367
:100100009CC3FFF3DEE36224433420040114E6645D
:10011000C774A44485546AA54BB528850995EEE5B6
:10012000CFF5ACC58DD55336722611163006D7766D
:10013000F6669556B4465BB77AA719973887DFF706
:10014000FEE79DD7BCC7C448E5588668A778400835
:10015000611802282338CCC9EDD98EE9AFF9488956
:1001600069990AA92BB9F55AD44AB77A966A711ACD
:10017000500A333A122AFDDBDCCBBFFB9EEB799BA6
:10018000588B3BBB1AABA66C877CE44CC55C222C1D
:10019000033C600C411CAEED8FFDECCDCDDD2AADF6
:1001A0000BBD688D499D977EB66ED55EF44E133EAD
:1001B000322E511E700E9FFFBEEFDDDFFCCF1BBF46
:1001C0003AAF599F788F8891A981CAB1EBA10CD120
:1001D0002DC14EF16FE18010A100C230E320045028
:1001E000254046706760B9839893FBA3DAB33DC39B
:1001F0001CD37FE35EF3B1029012F322D232354278
:10020000145277625672EAB5CBA5A89589856EF52A
:100210004FE52CD50DC5E234C324A01481046674C7
:10022000476424540544DBA7FAB79987B8975FE77A
:100230007EF71DC73CD7D326F2369106B016576617
:100240007676154634564CD96DC90EF92FE9C89902
:10025000E9898AB9ABA94458654806782768C01867
:10026000E1088238A3287DCB5CDB3FEB1EFBF98BDA
:10027000D89BBBAB9ABB754A545A376A167AF10AB7
:10028000D01AB32A923A2EFD0FED6CDD4DCDAABDEA
:100290008BADE89DC98D267C076C645C454CA23C07
:1002A000832CE01CC10C1FEF3EFF5DCF7CDF9BAFBA
:1002B000BABFD98FF89F176E367E554E745E932E57
:1002C000B23ED10EF01E00081C18141011241FBEDF
:1002D000CFEFD0E1DEBFCDBF11E0A0E0B1E0E6E2BC
:1002E000F3E600E00BBF02C007900D92A036B10705
:1002F000D9F719E0A0E6B1E001C01D92A337B1071C
:10030000E1F70E942A2C0C9492310C9400008FB7D4
:10031000F894992708958FBF0895282F9FB7F894D0
:10032000E82FFF27EB50FE4F80818F3F81F4E09153
:100330004F09E21771F40BC02093000904C0FF2796
:10034000EB50FE4F208320934F0920E007C025E0AB
:1003500005C0809100098F3F91F7EECF892F992733
:100360008FBF822F9927089580E10E948D019927E0
:1003700008958DE00E948D01992708951F931FB75E
:10038000F89480914B09882341F486E10E948D0105
:10039000882319F481E080934B09812F99278FBF1F
:1003A0001F910895382FFA01422F2D3118F082E065
:1003B00090E008956683872F992785833387218767
:1003C0008091810190918201892B19F085E090E064
:1003D00008952FB7F894332785E080938401109215
:1003E0008501F0938001E0937F0182E090E090939B
:1003F0008201809381011092870110928601445FEF
:10040000409383012FBF8FB7F894282F3327809113
:10041000D1048A3011F42FBF19C02FBF9FB7F894B1
:1004200080912403882311F020E006C081E08093AE
:1004300024031092250321E0892F99278FBF2223BF
:1004400029F00E94BE0180E090E0089510928201A0
:100450001092810181E090E00895CF93DF93DB015A
:10046000FB0135968183892F9927EB018D8384E6E3
:1004700086838091C9089091CA08892B19F085E07C
:1004800090E029C07093CA086093C90844838091A2
:100490004901882319F480E090E01DC08681EB01BA
:1004A0006D817727762F662721813327622B732B67
:1004B00010924901242FAD010E94D2019927282FC3
:1004C000882339F081E0809349011092CA08109284
:1004D000C908822F9927DF91CF910895CF93DF9399
:1004E00010924901A091C908B091CA08109721F053
:1004F0008091080380FF08C081E08093490117C004
:1005000085E10E948D0113C0FD01359624813327BA
:10051000ED016D817727762F662781819927682BDA
:10052000792BAD0186810E94D201882349F7DF91A2
:10053000CF9108958091D1048A3021F48091BA023C
:10054000843021F081E080937C01089588E10E944D
:100550008D0110927C0108952FB7F89433278CB940
:100560005E9A2FBF0895FC016115710519F481E0B1
:1005700090E0089580911C0390911D03892B19F040
:1005800085E090E008957093A3086093A208F0932B
:100590001D03E0931C031092F0021092EF0281E021
:1005A0008093F1025E9A569A808121E030E0309388
:1005B000F0022093EF020E94AC0280E090E00895E8
:1005C0008FB7F894992720918D012E7F20938D016C
:1005D0002EE7209315028FBF61E070E085E192E085
:1005E0000E94B30299270895FC0182819927582F10
:1005F000442781819927482B592BCA01892F992794
:1006000086958695837090708230910559F083307D
:10061000910559F0892B19F420E030E008C02CE94D
:100620003FEF05C022E030E002C028E030E0CA0120
:1006300084E0989F812D992711248230910559F0EB
:100640008330910559F0892B19F480E090E008C0BF
:100650008CE99FEF05C082E090E002C088E090E066
:10066000280F391F2A5F3F4FCF01820F931F089534
:10067000282F9FB7F894662349F0E82FFF27ED5005
:10068000FB4F8081882311F021E006C0E22FFF2775
:10069000ED50FB4F608320E0892F99278FBF822F79
:1006A00099270895E82F8FB7F894282F332790E0E3
:1006B000FF27ED50FB4F8081861709F491E02FBF93
:1006C000892F99270895882311F06E9A08956E98BE
:1006D0000895882311F06F9A08956F98089580E027
:1006E0000E946303BA9ABB98B99AB89A6C9A80E050
:1006F0000E9469036B986A9881E00E946303709A74
:100700008DB18C7F8DB908950F931F930FB7F89417
:10071000112782E0809367010E946F030FBF8091D1
:100720003C01882329F4B89AC09886E00E948D0184
:100730001F910F9108951F93182F81E00E9463036A
:100740001FB9779BFECF8FB199271F910895FF9214
:100750000F931F93CF93DF93F82E8B018FB7F894ED
:10076000C82FDD2760E080E00E945203882321F03B
:10077000CFBF80E090E00CC0CFBF8F2D0E949B03C5
:10078000812F99270E949B03802F0E949B0399270A
:10079000DF91CF911F910F91FF9008958F929F92BB
:1007A000AF92BF92CF92DF92EF92FF920F931F937F
:1007B000CF93DF938FB7F8949927C0901309D09007
:1007C00014098090690490906A04C0913603D09116
:1007D000370320919F013091A001FAE0AF2EB12C98
:1007E000AC0EBD1E2A153B0508F459018FBF7401DC
:1007F000EC0EFD1E86010C0F1D1F14C0C114D10488
:1008000019F0F801808101C080E00E949B038114EF
:10081000910411F0F701808321960894E11CF11CEA
:100820000F5F1F4FC5010197C817D90738F381E043
:100830000E9469039FB7F894C114D10431F0CC0E23
:10084000DD1EF60180818FB901C01FB8D093370338
:10085000C0933603892F99278FBF80E090E0DF9106
:10086000CF911F910F91FF90EF90DF90CF90BF90AD
:10087000AF909F908F9008952FB7F894332750939F
:10088000A00140939F0190931409809313097093E2
:100890006A046093690410923703109236032FBFE5
:1008A000452B29F08FB10E94CE039927089587E048
:1008B0000E948D0180E090E008958FB7F894992709
:1008C0001092F5048FBF08959C01685F6D3118F098
:1008D00080E090E008950C9611F0C90144960895C7
:1008E000AC01209171012E3018F081E090E0089564
:1008F00080917001E82FFF27EE0FFF1FE858F74F98
:10090000518340838F5F809370018E3011F4109279
:1009100070012F5F2093710180E090E00895AC0199
:10092000E7E4F3E080E090E09C01858180FF05C072
:10093000808191818417950741F0C90101963E9607
:100940008A30910589F72FEF30E0C90108950E94A0
:100950008F048F3F91F099272EE030E0829FF001C5
:10096000839FF00D929FF00D1124E95BFC4F858170
:1009700081FF03C08285938508958FEF90E00895ED
:100980000E948F048F3F19F481E090E00895282F92
:1009900033278EE090E0289FF001299FF00D389FCB
:1009A000F00D1124E95BFC4F85818860858380E030
:1009B00090E008952F923F924F925F926F927F92B4
:1009C0008F929F92AF92BF92CF92DF92EF92FF925F
:1009D0000F931F93CF93DF93CDB7DEB729970FB651
:1009E000F894DEBF0FBECDBF6FB76983F894209037
:1009F00000033090010340900203509003036624EB
:100A0000772488240EE4A02E13E8B12ECC24DD2414
:100A1000EE24FF2400E010E0222D332D442D552D2F
:100A2000662D772D882D90E00E94162F2A833B8318
:100A30004C835D836E837F8388879987822E932E74
:100A4000A42EB52E2401350100E20E941430A22EFE
:100A5000B32EC42ED52EA3019201569547953795F6
:100A600027952A0D3B1D4C1D5D1D57FF05C05F7767
:100A70002F5F3F4F4F4F5F4F209300033093010391
:100A80004093020350930303E9818E2F99278FBF70
:100A9000CA01B90129960FB6F894DEBF0FBECDBFCB
:100AA000DF91CF911F910F91FF90EF90DF90CF904A
:100AB000BF90AF909F908F907F906F905F904F907E
:100AC0003F902F900895EF920F931F93AE2D99E0D2
:100AD000899FF0011124EC52FC4F408351836283C3
:100AE00073830483158326833783A17080858E7F6B
:100AF0008A2B826080878BE00E948D011F910F916D
:100B0000EF9008957FB7F89462B72091D7013091A4
:100B1000D8014091D9015091DA0106B601FE0FC00B
:100B200081B792B7280F311D411D511D2F5F3F4FD7
:100B30004F4F5F4F290F311D411D511D04C0260F1E
:100B4000311D411D511D872F99278FBFCA01B90142
:100B500008959C016E5F6D3118F080E090E008957B
:100B60000C9611F0C9010E960895FC018089992711
:100B7000982F882721893327822B932B0895FC01F6
:100B8000CB01428553859A0163E0220F331F6A959A
:100B9000E1F7240F351F2B5F3F4F820F931F6AE051
:100BA00070E00E94F330738762870895FC016485CA
:100BB0009585662339F48AE0989FB00111246A5024
:100BC00070400BC077278AE0989FC00111240E94D3
:100BD00007316A50704014861586CF010E94BF0508
:100BE000089580916F01E82FFF27EE0FFF1FE8584F
:100BF000F74F0190F081E02D20917101222351F0F7
:100C00008F5F80936F018E3011F410926F0121502D
:100C100020937101CF010895FC0180899927982FB5
:100C2000882721893327822B932B0895AF92BF9277
:100C3000DF92EF92FF920F931F93CF93DF935C01AC
:100C4000D090DB01F0902C03EE2425C00F2D037013
:100C50001127C5010E940C06F801EE0FFF1FEE0FD1
:100C6000FF1FE00FF11FEA5EFD4F208131818217E7
:100C7000930779F4D5011C96ED019E818281891735
:100C800041F499818481891721F49F818381891797
:100C900021F0E394F394ED14C9F68E2D9927DF919A
:100CA000CF911F910F91FF90EF90DF90BF90AF9089
:100CB0000895AC01209129032C3018F081E090E0D8
:100CC000089580910503682F620F712D711DFB013E
:100CD0006C30710508F03C97EE0FFF1FEC52FB4F94
:100CE000518340832F5F2093290380E090E0089593
:100CF000AC01209128032C3018F081E090E0089599
:100D000080910A09682F620F712D711DFB016C30F3
:100D1000710508F03C97EE0FFF1FEF5AF64F518315
:100D200040832F5F2093280380E090E008950F9385
:100D30001F93CF93DF93EC01892BE9F020919A0860
:100D400030919B088FEF2F3F3807A9F08091DC018D
:100D5000813019F4198218820BC000919C081091FF
:100D60009D08C9010E94A704080F191F1983088351
:100D700080E090E002C081E090E0DF91CF911F9190
:100D80000F9108954FB7F8945527FC0123E0F6958D
:100D9000E7952A95E1F7E156FB4F8770907021E0C7
:100DA00030E002C0220F331F8A95E2F78081822B48
:100DB00080834FBF0895DF92EF92FF920F931F93AE
:100DC0008FB7F894282F3327D22E91B782B746B722
:100DD000981711F041FF02C02FBF6AC080912D0308
:100DE0008823E1F10E948205E090EF04F090F00486
:100DF0000091F1041091F2042091EC013091ED0189
:100E00004091EE015091EF016E197F09800B910B1B
:100E1000621773078407950720F010922D0371E085
:100E20001EC02E0D3F1D401F511F8091D701909174
:100E3000D801A091D901B091DA01281B390B4A0BD6
:100E40005B0B273E31054105510540F4822F2230CE
:100E500010F070E005C070E082E002C070E086EE45
:100E6000682F615000B601FCFDCF82B7681709F406
:100E70006F5F2091D7013091D8014091D9015091F5
:100E8000DA01DA01C9010196A11DB11D860F911D7C
:100E9000A11DB11D82179307A407B50710F4622F97
:100EA000609561BFDFBE772319F08AE00E948D0153
:100EB0001F910F91FF90EF90DF900895AFB7F894D6
:100EC000BB27E1E0E0932D036093EF047093F004FF
:100ED0008093F1049093F2042093EC013093ED01A0
:100EE0004093EE015093EF01AFBF0E94DB060895DF
:100EF00008950F931F93CF93DF93282F33278EE00E
:100F000090E0289FF001299FF00D389FF00D1124EB
:100F1000E95BFC4F858182FF03C062838B7F858301
:100F20008281962F981B628383818F5F838386E003
:100F30008683992361F08481890F815084839B305B
:100F400030F0148281E083831782118610868EE050
:100F500090E0289FF001299FF00D389FF00D11249B
:100F6000E95BFC4F8381833008F470C000811181FC
:100F7000C7E4D3E0888199818017910709F060C0A8
:100F80008D8180FF5DC08E81882311F081508E831A
:100F90008F81882311F081508F838E81882351F4B3
:100FA0008F81882339F48D8191E089278D8319867B
:100FB000188641C08D8182608D839B816C81690F11
:100FC000633008F463E077278FEF989FC001112406
:100FD0000E940731888529E0829FC001112405966F
:100FE000860F911D6AE070E00E94073168871B82BE
:100FF0001C8229856623F9F02223E9F0772781E016
:101000009EEF0E94F33033278AE090E0AC01649FAA
:10101000C001659F900D749F900D1124B9010E942D
:10102000F3306A5070406F3F710519F010F06CE3B7
:1010300070E0772702C06CE370E0CE010E94BF052C
:101040002E9653E0C33DD50709F094CFDF91CF91A1
:101050001F910F91089580E090E0ECE4F3E09C0193
:10106000808180FF08C0C90101963E968A309105B3
:10107000B1F72FEF30E0C90108959EE0899FF0019C
:101080001124E95BFC4F7183608312821382148206
:1010900085E0858386E086838783108611861386A4
:1010A00012860895982FAFEF60E070E040E050E0C6
:1010B000ECE4F3E08081282F332720FF0BC021FFD1
:1010C00009C023FD07C0258136812617370710F098
:1010D000A42FB9014F5F5F4F3E964A30510551F73B
:1010E000892F99276817790718F48FEF90E00895F2
:1010F0008A2F99270895AC013091F3018FEF4F3F6C
:10110000580711F020E012C0832F99270895E22F8D
:10111000FF2763E0EE0FFF1F6A95E1F7E15DFD4FEA
:10112000808191818417950719F02F5F231779F734
:10113000822F992708951F93CF93DF93162FC0E036
:10114000D0E06AE10E94A905FC018081812381171A
:1011500011F4C1E0D0E0CE01DF91CF911F9108954D
:10116000FC018081448555274F7050709A01220FF1
:10117000331F240F351F821B8F509927089580E855
:101180008093F0011092B902109208091092FF08A2
:1011900010922D020895CF93DF93FC0115A6DC0178
:1011A0009E96ED011B821A82198280E886A7DF9144
:1011B000CF9108958FB7F8946091400370914103E7
:1011C0002CB53DB506B602FE04C06F5F7F4F2CB54F
:1011D0003DB599278FBF88279927CB0177276627A9
:1011E00044275527622B732B842B952B0895EF9260
:1011F000FF920F931F930E94DA087B018C012091CC
:101200001203309113034091140350911503809100
:101210000A0390910B03A0910C03B0910D03820F70
:10122000931FA41FB51FE216F3060407150730F03D
:1012300082179307A407B50758F005C082179307D4
:10124000A407B507E0F5E816F9060A071B07B8F585
:101250009C01AD012E193F09400B510B213060E874
:10126000360760E0460760E0560768F180E090E8E6
:10127000A0E0B0E0E80EF91E0A1F1B1FE092120367
:10128000F0921303009314031093150380E090E889
:10129000AFEFBFEFE80EF91E0A1F1B1F20503048AA
:1012A0004040504020930A0330930B0340930C03BB
:1012B00050930D0320E030E840E050E014C020E0FF
:1012C00030E040E050E08093120390931303A0932A
:1012D0001403B093150310920A0310920B0310929B
:1012E0000C0310920D03A901B7012CB53DB5C9013E
:1012F0008E199F0903968417950720F0B9016D5F39
:101300007F4F02C0640F751F6115710511F461E014
:1013100070E0615070407BBD6ABD80E186BF87B7D9
:10132000806187BF1F910F91FF90EF9008950F93F9
:101330001F930FB7F8941127609312037093130350
:10134000809314039093150320930A0330930B03A7
:1013500040930C0350930D030E94F7080FBF1F9199
:101360000F9108958FB7F8949927609105068FBF64
:1013700085E0689FB0011124625D7E4F706488E152
:101380000E94A70308951F931FB7F89480912C0221
:10139000882319F460E070E009C060E080910E09D4
:1013A000882309F461E081E0682777278091FD02B6
:1013B000882319F480E090E00AC090E08091020553
:1013C000882309F491E081E09827892F9927762FC7
:1013D0006627770F770F770FF4E0880F991FFA953C
:1013E000E1F7826E9262682B792B81E10E94A7035C
:1013F000812F99278FBF1F91089597B79F7D97BF22
:1014000090E296BF882319F08EB5806402C08EB535
:101410008F7B8EBD87B7806287BF80E090E00895A4
:10142000AF92BF92CF92DF92EF92FF920F931F93F2
:10143000CF93DF93CDB7DEB728970FB6F894DEBF12
:101440000FBECDBF20E070E0E0913701F091380190
:1014500032E14DE65CE46FE4809138019E2F2896DE
:101460000FB6F894DEBF0FBECDBFDF91CF911F91B5
:101470000F91FF90EF90DF90CF90BF90AF900895C5
:101480001F920F920FB60F9211248F9383B783BFD1
:1014900000B600FCFDCF8F910F900FBE0F901F90F4
:1014A000189578941F920F920FB60F9211240F90F7
:1014B0000FBE0F901F90189578941F920F920FB641
:1014C0000F9211240F900FBE0F901F9018957894D3
:1014D0001F920F920FB60F9211242F933F938F9369
:1014E0009F932FB7F8943327809140039091410345
:1014F000019690934103809340032FBF9F918F915A
:101500003F912F910F900FBE0F901F9018951F9233
:101510000F920FB60F9211240F900FBE0F901F90D5
:1015200018951F920F920FB60F9211240F900FBEB5
:101530000F901F9018951F920F920FB60F921124C3
:101540000F900FBE0F901F9018951F920F920FB61D
:101550000F9211240F900FBE0F901F9018951F929D
:101560000F920FB60F9211240F900FBE0F901F9085
:1015700018951F920F920FB60F9211240F900FBE65
:101580000F901F9018951F920F920FB60F92112473
:101590000F900FBE0F901F901895E6ECF0E06927B2
:1015A000660FF11DE60FF11DC895982F802D31961D
:1015B000C89590250895982F80918801882389F5F2
:1015C000992379F531E03093880180914A01809325
:1015D000890120917D01822F81708093F201809199
:1015E0004F019091500190938B0180938A018091DB
:1015F0007E0180938C0132273170267EE32FFF27F6
:10160000EE0FFF1FE55BFE4F8081918190935001AB
:1016100080934F01232B20937D018BE10E948D014C
:10162000089580917D0180FF02C08B7F01C08D7F76
:1016300080937D0108950F931F93082F162F80919B
:10164000BA028130D9F0813038F0823009F44AC0D2
:10165000833009F028C159C0002309F458C1109201
:101660009608109295081092D3041092A408109234
:10167000F202109243031092420339C1002309F091
:1016800046C180914203909143030E94CD0A9093FA
:1016900043038093420382E08093BA021093A4082C
:1016A000143409F000C125C18695869503C0809148
:1016B0007D018695817009F0F6C080917D019923A6
:1016C00011F0846001C0826080937D0180917D0172
:1016D000877E886080937D0110927E018FEF8093DA
:1016E0004A0115C1002309F0DEC06093F202809127
:1016F0004203909143030E94CD0A90934303809349
:10170000420383E08093BA0202C18091D3048F3FE9
:1017100009F4C9C0002309F461C0823008F4C3C0D1
:10172000E0919508EE2309F4EBC04E2F4150E42FD1
:10173000FF27EB56F74F82819927382F2227442322
:1017400011F4E2E002C0E42FE150FF27EB56F74F1F
:1017500082819927282B392B809142039091430352
:101760002817390709F09FC080E00E94DB0A3091FA
:10177000F20280912E0320912F03982F9F5F9630C5
:1017800008F090E0921771F0E82FFF27E25DFC4F20
:1017900032838F5F80932E03863010F010922E03D9
:1017A0000E94BE01109296081092950894E09093C2
:1017B000BA021092D3041092A4081092F20210926E
:1017C00043031092420380918D018D7F80938D01A0
:1017D00080917C01882309F49AC084C0823008F487
:1017E0004EC0E0919608FF27EB56F74F8281482FB5
:1017F0005527342F20917D01822F869586958695D9
:10180000837099278130910519F00297F9F40EC081
:10181000277E206120937D01442311F485E001C0DF
:1018200080E080937E0130934A0110C080917E0158
:10183000843360F4E0914F01F0915001E80FF11D05
:10184000408380917E018F5F80937E018091960816
:10185000E82FFF27EB56F74F62818F5F8093960842
:10186000833010F010929608772780914203909170
:1018700043030E94CD0A90934303809342038091D7
:101880009508E82FFF27EB56F74F12838F5F809361
:101890009508833010F0109295088091D3048F5FE3
:1018A0008093D30434C0109296081092950814E0E7
:1018B0001093BA021092D3041092A4081092F2026C
:1018C000109243031092420380918D018D7F80938B
:1018D0008D0181E00E94DB0A80917C01882329F040
:1018E0001093BA020E949A0212C0002381F081E094
:1018F00009CF80917D01982F917080FDD5CED7CEF4
:10190000809199089927382F222742E01CCF1F91F8
:101910000F9108951F920F920FB60F9211242F93DB
:101920003F934F935F936F937F938F939F93AF9367
:10193000BF93EF93FF935F9B3DC06CB1E091440375
:10194000F09145033097F9F08091490990914A0947
:10195000E80FF91F6083019690934A098093490923
:1019600020916B0930916C098217930718F110923E
:101970004503109244038091A0048330D9F0579816
:101980001092A00417C06E3719F460E081E010C017
:1019900080918D016D3721F4826080938D010AC0A2
:1019A00081FF05C08D7F80938D0180E2682780E0F4
:1019B0000E941B0BFF91EF91BF91AF919F918F916F
:1019C0007F916F915F914F913F912F910F900FBE3B
:1019D0000F901F901895982F8D57823068F4809142
:1019E0008D01816080938D0180E289278093D204EC
:1019F0008DE78093150202C09093150261E070E0BC
:101A000085E192E00E94B3029927089578941F928D
:101A10000F920FB60F921124FF920F931F932F93E3
:101A20003F934F935F936F937F938F939F93AF9366
:101A3000BF93CF93DF93EF93FF932091EF02309109
:101A4000F0028091A2089091A3082817390780F42A
:101A5000E0911C03F0911D03E20FF31F80812F5FC3
:101A60003F4F3093F0022093EF020E94AC02CDC0B2
:101A700010921D0310921C031092F1025698FFB6AB
:101A8000F89480918D0180FF0EC08E7F80938D0130
:101A90008091D2048093150261E070E085E192E0CC
:101AA0000E94B302AFC08091D104843009F48CC08D
:101AB000853040F4823021F18330B8F5813009F06F
:101AC0009CC00DC0863009F48DC0863008F483C0F8
:101AD000873009F48EC0883009F08FC091C08091A2
:101AE00011030E94EB0C082F83E08093D1046091D6
:101AF00011038091690990916A090E94CD0A10C072
:101B0000809107090E94EB0C082F83E08093D10499
:101B1000609107098091690990916A090E94CD0A34
:101B200090936A098093690966C0E091D303FF2707
:101B3000EE0FFF1FED5DFC4F80810E94EB0C082F24
:101B40001091D303C12FDD27FE01EE0FFF1FED5DC6
:101B5000FC4F60818091690990916A090E94CD0AC9
:101B600090936A0980936909209109032F5F20935C
:101B70000903113039F580918401E0917F01F091E2
:101B80008001E80FF11DE0818F5F809384019091C7
:101B90008301981730F482E08093240340E050E002
:101BA00002C04E2F5527DE01AA0FBB1FFD01EE5DBF
:101BB000FC4F8081823031F02F3F21F0AD5DBC4F72
:101BC0004C9319C084E012C0809169090E94EB0C0B
:101BD000082F85E00BC080916A090E94EB0C082F4A
:101BE00086E004C00E94E002082F87E08093D104C1
:101BF00002C088E003C0002329F089E08093D1046B
:101C00000E94BE018F2D99278FBFFF91EF91DF9129
:101C1000CF91BF91AF919F918F917F916F915F9184
:101C20004F913F912F911F910F91FF900F900FBEF9
:101C30000F901F9018951F920F920FB60F921124BC
:101C40008F9380919B0087FF02C080919C008F91B1
:101C50000F900FBE0F901F90189578941F920F92BF
:101C60000FB60F9211240F900FBE0F901F90189572
:101C700078941F920F920FB60F9211240F900FBEFF
:101C80000F901F90189578941F920F920FB60F9295
:101C900011240F900FBE0F901F90189578941F92EB
:101CA0000F920FB60F9211240F900FBE0F901F903E
:101CB000189578941F920F920FB60F9211248F935C
:101CC0009F9380918000909181009F918F910F90C0
:101CD0000FBE0F901F90189578941F920F920FB619
:101CE0000F9211242F933F938F939F932FB7F894C4
:101CF0003327809106039091070301969093070381
:101D0000809306032FBF9F918F913F912F910F904A
:101D10000FBE0F901F901895809190018C3118F094
:101D20004CE150E002C0482F55278CE1E1E2F9E098
:101D300011928A95E9F79091900180918E0120E0AF
:101D400030E0A1E2B9E00FC0E82FFF27E55FFA4FCE
:101D5000E081992329F08F5F8A3F09F480E0915058
:101D6000ED932F5F3F4F2417350771F79093900144
:101D700080938E014CE165E179E08FEF9FEF0E9447
:101D80002D02882319F08CE10E948D0108958FB7F0
:101D9000F894282F332780919101813021F42FBFAF
:101DA00080E090E0089590E080919001882309F40C
:101DB00091E0992321F02FBF81E090E0089581E028
:101DC000809391012FBF0E948C0E80E090E00895D7
:101DD0001F93182F80919101882349F480919001DD
:101DE0008D3728F081E0809391010E948C0E8FB78F
:101DF000F894282F3327909190019A3FA8F480916E
:101E00008F01E82FFF27E55FFA4F10838F5F8093E4
:101E10008F018A3F11F410928F019F5F9093900180
:101E20002FBF80E090E003C02FBF8FEF9FEF1F9187
:101E30000895AF92BF92CF92DF92FF920F931F93BC
:101E4000CF93DF936C01EC01EA81E23090F4FF273D
:101E5000EE0FFF1FE15FF64F918380838A8181300F
:101E600009F084C06F57724009F080C01092610180
:101E70007DC0442309F472C0EC01A880B980809130
:101E8000DB01843009F046C0C5010E94160620918E
:101E9000DB01622F0E94E730492F9217D8F5992372
:101EA00059F480912C039927019664E070E00E9418
:101EB000073180932C0329C080912C03840F912D2E
:101EC000911D9C0123703070E901CC0FDD1FCC0FF8
:101ED000DD1FC20FD31F019664E070E00E9407313E
:101EE000FC01EE0FFF1FEE0FFF1FE80FF91FCA5E88
:101EF000DD4FEA5EFD4F85E0019009928150E1F7E8
:101F00004F5F8091DB014817B8F28091DB0181506F
:101F10008093DB01F090DB0180912C038F0D912DDC
:101F2000911D837090708C01000F111F000F111F05
:101F3000080F191F0A5E1D4FC5010E940C06F8010B
:101F400091838083F5013C968681E8018A838181B3
:101F50008C8387818B83F394F092DB01F60180817F
:101F600091810E945906C6010E947806DF91CF91A7
:101F70001F910F91FF90DF90CF90BF90AF90089589
:101F80001F920F920FB60F9211242F933F934F93EE
:101F90005F936F937F938F939F93AF93BF93EF93D1
:101FA000FF9383B783BF00B600FCFDCF81B79927AD
:101FB0000196AA27BB272091D7013091D8014091E3
:101FC000D9015091DA01280F391F4A1F5B1F209356
:101FD000D7013093D8014093D9015093DA01789416
:101FE0000E94DB06FF91EF91BF91AF919F918F917E
:101FF0007F916F915F914F913F912F910F900FBE05
:102000000F901F9018950F931F93CF93DF93182F66
:102010008FB7F894C82FDD270C2F61E080E00E9475
:102020003803882321F0CFBF85E090E024C0809161
:102030003C018823A1F480916701823081F409C0BA
:1020400082E08093670110923C010E946F03B89A6E
:10205000C0981093390180E00FBF99270CC0809180
:102060006701882369F38FB7F89499271092F304D6
:102070008FBF81E0F1CFDF91CF911F910F91089534
:102080000F931F93182F0FB7F89461E080E00E9420
:102090003803882341F51093390180913C0188234E
:1020A00079F580916701823059F586E006C081E0BC
:1020B0008093670110923C0188E00E948D012AC044
:1020C000809110038F3F31F5E0913B01EE2311F138
:1020D0001CC010923A0104C0FF27E05FFC4F108241
:1020E00010923B0117C081E090E002C0880F991F59
:1020F0001A95E2F720916601282B209366010AC009
:10210000809167018823E1F6D2CF80913A018F3F19
:1021100019F7DFCF802F99278FBF80E090E01F91C4
:102120000F9108951F938FB7F894282F3327122FFC
:1021300080914E09882321F02FBF81E090E013C0E9
:1021400081E080934E09809163019091640104972E
:1021500021F481E00E94401003C084E00E948D01C0
:102160001FBF80E090E01F9108951F9383E00E94BD
:1021700003109927182F882319F083E00E9440103C
:10218000812F99271F910895662351F48091900122
:10219000882319F00E948C0E0895109291010895E1
:1021A0008CE10E948D0108950F931F93CF93DF93CD
:1021B000182FEB01042FE82FFF27EE0FFF1FE75327
:1021C000F74F118210820E946E02112321F4602FBA
:1021D000CE010E94C410DF91CF911F910F910895FD
:1021E0004CE165E179E08FEF9FEF0E942D0288239B
:1021F00019F08CE10E948D010895CF93DF93EC01DB
:102200000E947B08282F8091F3012817D1F0382FE6
:1022100031503093F30113C0822F992743E0880F88
:10222000991F4A95E1F7DC01A15DBD4FFC01E95C16
:10223000FD4F88E001900D928150E1F72F5F231749
:1022400058F380919A0890919B088C179D07A1F4F0
:102250008FEF9FEF90939B0880939A0810929D08B0
:1022600010929C0810929E0810929F0881E0809323
:10227000770180E10E948D01DF91CF910895AF92A7
:10228000BF92CF92DF92EF92FF920F931F93282F6E
:1022900033278BE090E0289FF001299FF00D389FB5
:1022A000F00D1124EC56FE4F82819381A481B581FB
:1022B0000097A105B10569F080819181880F991F70
:1022C000918380838150944020F080E094E091835A
:1022D00080838BE090E0289F5001299FB00C389FAD
:1022E000B00C112484E991E0A80EB91EF501868195
:1022F0009781A085B18582839383A483B583C080B1
:10230000D180EE24FF24B9E0CC0CDD1CEE1CFF1CB8
:10231000BA95D1F70E94DA04DC01CB01F501008106
:102320001181B801762F6627770F0E94F330AA2714
:10233000BB278C0D9D1DAE1DBF1D222733275AE0E4
:10234000000F111F221F331F5A95D1F7081B190BBD
:102350002A0B3B0B06831783208731872281338129
:1023600044815581280F391F4A1F5B1F2283338305
:10237000448355831F910F91FF90EF90DF90CF9092
:10238000BF90AF900895EF92FF921F93CF93DF938A
:10239000E090FE02F090FF02F70182A59927182F26
:1023A000882309F41FE1C09880912B02811749F01E
:1023B000612F77276F717070606E706885E10E9481
:1023C000A70310932B02F70110818FB7F894C82F41
:1023D000DD2760E080E00E945203882311F0CFBF28
:1023E00012C0CFBF8EE390E090931F0380931E0333
:1023F0008EE30E949B031150412F552760E070E04F
:10240000C7010E943C04DF91CF911F91FF90EF9094
:1024100008950F931F93CF93DF93EC010FB7F894B8
:1024200011270E94F402FC018FE380830FBF1092FA
:102430000C0910920B0961E082E00E9438038823A6
:1024400019F085E090E072C0809177088F5F8093EB
:10245000770881508B838FB7F894082F112762E09B
:1024600081E00E945203882329F40FBF0E945D047B
:1024700081E05BC08FB7F894992724E02093F4049F
:102480008FBFD0932B03C0932A030FBFFE01319659
:10249000818129819927982F88273327822B932B95
:1024A00080729C7C8983892F992781832981982F29
:1024B000882733272164822B932B8983892F99279F
:1024C00081831CA618A619A619AA18AA1FA680E817
:1024D0008EA761E06093F70440912A0350912B038B
:1024E0008FB7F894282F3327809168019091690164
:1024F0008830910511F0019711F02FBF15C082E0CF
:1025000090E0909369018093680160935009509323
:10251000FF024093FE021092D5012FBF0E94B5101A
:10252000882311F40E94C31180E09927DF91CF9195
:102530001F910F910895CF93DF93DA01422F2D3130
:1025400018F082E090E05EC0ED018B876E83872FEC
:1025500099278F832FB7F89433278091F3029091B6
:10256000F4022FBFFD018483892F992785832FB71C
:10257000F894332780913D0190913E012FBF8887C9
:10258000892F992789873196818129819927982FC9
:102590008827332720643868822B932B8983892FDF
:1025A00099278183435F4C934D508091400188234C
:1025B00059F010924001642FCD010E940912992711
:1025C000282F8823A9F417C0842F992790932703D5
:1025D00080932603B0936D01A0936C018CE00E9460
:1025E0008D0180914001882349F489E090E00AC080
:1025F0008FEF80934001822F992704C0109204032B
:1026000080E090E0DF91CF9108951F938091430186
:102610009927019664E070E00E940731682F80934B
:10262000430110E0462F5527FA01EE0FFF1FE85C2B
:10263000FC4FA081B181109799F0E62FE695E695C1
:10264000E695FF27E75FF64F808199279A0127706B
:10265000307002C0959587952A95E2F780FF0DC0EE
:10266000CA01019664E070E00E940731682F1F5F85
:102670001430C1F61093430119C0609343016430D4
:10268000A8F42C912D503327FD0167817727762FF1
:10269000662786819927682B792BAD0183850E9457
:1026A0009B12882319F08FE00E948D011F910895DD
:1026B000CF93DF93582FFB01843018F081E090E036
:1026C00033C0C82FDD27CC0FDD1FC85CDC4F8881ED
:1026D0009981892B19F085E090E026C07983688381
:1026E000435F40834D5080914301843018F480E073
:1026F00090E01AC0838567817727762F6627268129
:102700003327622B732B50934301242FAF010E9478
:102710009B129927282F882329F084E08093430176
:1027200019821882822F9927DF91CF9108958F9275
:102730009F92AF92BF92CF92DF92EF92FF920F9350
:102740001F93CF93DF9380917601882309F0B8C05F
:10275000E0910E03F0910F03108280919A089091FE
:102760009B08E0910E03F0910F038283892F992734
:1027700081838091DC01882329F080919C089091CD
:102780009D0820C080919A0890919B08C0919C0858
:10279000D0919D082FEF8F3F920781F4E0910E03B7
:1027A000F0910F03C4838D2F99278383E0910E034B
:1027B000F0910F038081806880830CC00E94A70481
:1027C0008C0F9D1FE0910E03F0910F038483892FDE
:1027D0009927838377ECE72E72E0F72E68E0C70134
:1027E0000C970E94A9058C010B5F1F4FAA2440E0A3
:1027F000882499246EE0C62ED12C53E0B52E80910A
:10280000730199270196880D991D6AE070E00E9476
:1028100007319C0199278C9DD0018D9DB00D9C9D09
:10282000B00D1124A95BBC4FED018D81992780FF6C
:1028300011C081FF0FC08D919C914B9DF00111241F
:10284000E00FF11F8183892F9927808388858283F8
:102850004F5FA22EE9E08E16910429F00894811CA6
:10286000911C473060F2A0927301809172018F5FDA
:10287000809372018150E7018983842F8F70809348
:10288000C7028FEF8093C1028093C20280E78093DA
:10289000C60283E0489FC0011124895F482F552755
:1028A0006BEB72E081E00E9458139927882321F492
:1028B00081E08093760104C0843011F41092740199
:1028C000DF91CF911F910F91FF90EF90DF90CF900C
:1028D000BF90AF909F908F900895AF92BF92CF928C
:1028E000DF92EF92FF920F931F93BC018091EB0157
:1028F000882309F478C08091B802882309F073C056
:1029000081E08093B8026093AE01872F992780936E
:10291000AD016333710521F0AA24BB24650108C011
:10292000A0907801B0907901C0907A01D0907B019D
:10293000A092B20111270D2DFC2CEB2CE092B101DD
:102940009601442755272093B0018D2D9927AA275A
:10295000BB27EDEAF1E08283FF2400271127102F27
:102960000F2DFE2CEE24B82FAA279927882733276E
:1029700044275527A90133272227822B932BA42BE9
:10298000B52B2A2D332744275527822B932BA42B95
:10299000B52BE82AF92A0A2B1B2BE114F1040105B7
:1029A000110511F410E010C06333710521F41AE031
:1029B00068EF74E003C010E060E070E0412F55273D
:1029C00083EB91E00E94A4308FEF8093A701809366
:1029D000A80180E68093AC011A5F412F61EA71E0A3
:1029E00082E00E9458131F910F91FF90EF90DF90AB
:1029F000CF90BF90AF900895CF92DF92EF92FF9269
:102A00000F931F93CF93DF938C01F62E6A01E22E72
:102A10008FB7F894C82FDD2760E080E00E94520352
:102A2000882321F0CFBF80E090E01EC0CFBF0F0D04
:102A3000111D802F80680E949B03F82E1695079524
:102A4000802F807C0E949B030E2D0AC0EE2DFF2755
:102A5000E01BF109EC0DFD1D80810E949B030150DC
:102A60000023A1F78F2D9927DF91CF911F910F910F
:102A7000FF90EF90DF90CF900895CF93DF93CDB785
:102A8000DEB72C970FB6F894DEBF0FBECDBF8FB761
:102A9000F894282FAE014F5F5F4FDA01E3E0F5E0D5
:102AA00088E001900D928150E1F78091F3029091BE
:102AB000F4028987892F99278A878091160390913C
:102AC00017038B87892F99278C872FBF2CE060E015
:102AD00080E691E00E94FC142C960FB6F894DEBFBD
:102AE0000FBECDBFDF91CF910895CF93DF93CDB7C8
:102AF000DEB72F970FB6F894DEBF0FBECDBF8FE0C5
:102B0000FE01319611928A95E9F7809137019091F3
:102B100038018A83892F992789838091FA0499271C
:102B2000982F88272091FB043327822B932B8C83AB
:102B3000892F99278B838091FC0499278E831D828E
:102B40008091FD04992788871F828091FE04992730
:102B5000982F88272091FF043327822B932B8A8775
:102B6000892F9927898780E091E00E94B4300E94E4
:102B7000C70E8091FD04863009F08EC08091FC0460
:102B80009927813021F0823009F086C021C08091E0
:102B9000FE049927382F22278091FF049927282B9C
:102BA000392B2130310549F48EE091E00E94B43098
:102BB0001C9A81E08093600110C0232B09F06CC047
:102BC00082E291E00E94B4301C981092600105C02E
:102BD0008091600199278A8719861B8680916101FF
:102BE000882309F059C06FE08FE792E00E946404E7
:102BF000009709F451C0FC01DE0111968FE00D90A1
:102C000001928150E1F780916E0181FF45C084E21D
:102C100080937F02809137019091380180939002D8
:102C2000892F992780938F028091F1018F5F809384
:102C3000F10181508093910289E080939202109279
:102C40008C02E0911109F0911209309729F18FE778
:102C500092E09183808381E082838EE18383CF0140
:102C60000E9470048823C1F480916E0182FF05C028
:102C700084FD03C08DE00E948D0110921209109214
:102C800011092FB7F89433278BB392E089278BBBB8
:102C90002FBF81E0809361012F960FB6F894DEBFBD
:102CA0000FBECDBFDF91CF910895EF92FF920F93AA
:102CB0001F9379018A016A3018F04AE050E002C09F
:102CC000462F5527BC0188EF94E00E94A430E09283
:102CD0007801F092790100937A0110937B010E94B0
:102CE00075151F910F91FF90EF9008951F93CF934B
:102CF000DF93182F8FB7F894C82FDD2760E080E0AE
:102D00000E945203882321F0CFBF80E090E005C0ED
:102D1000CFBF812F0E949B039927DF91CF911F91F5
:102D20000895EF92FF920F931F93CF93DF93182F85
:102D30007B01042F8FB7F894C82FDD2760E080E077
:102D40000E945203882321F0CFBF80E090E014C09E
:102D5000CFBF1064812F992790931F0380931E0388
:102D60000E949B03182F402F5527B70180E090E069
:102D70000E943C04812F9927DF91CF911F910F91E1
:102D8000FF90EF900895C098609192017091930127
:102D900041E08FE30E949116089582E090E09093C5
:102DA00013028093120281E08093B90220E030E0A8
:102DB00080913901843011F421E030E0232B29F493
:102DC00084E00E940310882319F40E94C31608951A
:102DD00084E00E94401008951F920F920FB60F9248
:102DE00011242F933F934F935F936F937F938F9310
:102DF0009F93AF93BF93EF93FF93809112029091B3
:102E00001302019749F482E090E0909313028093BB
:102E100012020E94CD1605C080912D028F5F809313
:102E20002D02FF91EF91BF91AF919F918F917F9173
:102E30006F915F914F913F912F910F900FBE0F9027
:102E40001F9018951F9380916601882309F048C050
:102E5000109139011F3F09F043C060E00E94520306
:102E60008823F1F181E0809376088091F401882332
:102E7000D1F11092760885E090E03BC08091670127
:102E80008230A9F5C09A80913A0120E030E08F3F6E
:102E900011F421E030E0232BD9F48F3F19F42FEF08
:102EA00030E00DC0282F3327F901E05FFC4F80810F
:102EB00080933A018F3F11F480933B01108320935C
:102EC0003C0181E08093670188E00E948D0104C08D
:102ED00010933C011092670180E00E94630307C0D9
:102EE00081E090E006C080913C01882339F280E0C7
:102EF00090E01F9108951F93CF93DF939FB7F894AD
:102F0000C92FDD271C2F90913901981721F0CFBFD1
:102F100081E090E03AC08FEF8093390130916601F3
:102F20003323F1F48FB7F89499271092F3048FBFED
:102F30000E942217CFBF11C02093390181E090E099
:102F400002C0880F991F4A95E2F780953823309385
:102F5000660186E00E948D011FBF80E090E015C0F1
:102F600080E065E0E32FFF270E94E730292F492FFB
:102F70005527CF01042E02C0959587950A94E2F754
:102F800080FDDACF822F8F5FEFCFDF91CF911F913E
:102F900008951F93CF93DF938FB7F894C82FDD2741
:102FA0001C2F8091120290911302892B29F484E046
:102FB0000E947B17CFBF1EC01092B90280912D02D4
:102FC000882311F0B79904C00E9908C0882319F01E
:102FD000815080932D020E94CD160BC081E090E0BD
:102FE000909313028093120210922D0284E00E94AB
:102FF0007B171FBFDF91CF911F9108950E94BF08DB
:10300000C09AC09888E00E94761688E00E947616E2
:10301000C09A84E00E947B170E94C91708951F93ED
:10302000182F81E090E090936901809368011092DD
:10303000F4010E9422178FB7F89499271093620128
:103040008FBF82E00E948D011F9108951F93CF933F
:10305000DF9310928201109281018FB7F894992723
:10306000109185018FBF80918601811113E020911D
:103070007F0130918001809187018823A9F480919C
:103080004901882389F4C091C908D091CA08C217A0
:10309000D30751F41092CA081092C9080E946E0218
:1030A000612FCE010E94C410DF91CF911F9108952E
:1030B000AF92BF92CF92DF92EF920F931F935B017B
:1030C0006C010E948205AB01BC01B1E0EB2E9601C0
:1030D000850183E00E9463051F910F91EF90DF90BF
:1030E000CF90BF90AF900895CF92DF92EF92FF9272
:1030F0000F931F936C017B010E94DA04DC01CB016A
:10310000B6010E94F330E80EF91E00271127C8010E
:10311000B7010E9458181F910F91FF90EF90DF9018
:10312000CF9008950F931F93CF93DF93EC01E0911D
:103130006F01FF27EE0FFF1FE858F74F0081118145
:10314000662329F06CE170E08CE190E02FC0809163
:103150006E0183FF3DC08CA58823D1F58F8199270F
:10316000982F88272E813327822B932B0E948F0440
:10317000982F8F3F71F08EE0989FF0011124E95B4A
:10318000FC4F85858F5F8587853018F0CF010E94C1
:10319000D60580E10E948D01F801838181508383EF
:1031A000882339F067E070E087E090E00E947418AF
:1031B0003FC00E94F10580916E018F7E80936E0169
:1031C00067E070E087E090E00E94741840E02CC057
:1031D0000E94F10580916E018F7E80936E0167E001
:1031E00070E087E090E00E9474188F819927982FF3
:1031F00088272E813327822B932B0E948F04982FB0
:103200008F3F89F08EE0989FF0011124E95BFC4F1D
:1032100084858F5F848785858F5F8587853018F0EB
:10322000CF010E94D60541E0BE01C8010E94190FDE
:10323000DF91CF911F910F910895282FCB0121305D
:1032400059F0213028F0223089F02330A1F411C048
:10325000642F0E94921808956B5B724061F4809114
:103260007601882341F01092760108951092B802F9
:1032700008951092B8020895EF92FF920F931F9352
:10328000E82E8B01F42EE82FFF27EE0FFF1FE85CDE
:10329000FC4F118210820E9405134F2DB8018E2D14
:1032A0000E941D191F910F91FF90EF9008950F93A9
:1032B0001F93CF93DF93042F109143011430A0F498
:1032C000E12FFF27EE0FFF1FE85CFC4FC081D1818B
:1032D000C617D70749F4118210820E940513402FA8
:1032E000BE01812F0E941D19DF91CF911F910F9177
:1032F0000895CF93DF93C0916C01D0916D016091DF
:103300002603CE010E940912482F5527442351F06D
:103310008FEF8093400160916C0170916D018B85FE
:103320000E945719DF91CF910895FF920F931F9339
:10333000CF93DF938FB7F8949927F09062018FBFF6
:1033400063E081E00E945203882359F10FB7F8949B
:103350001127109269011092680187B78F7E87BF8D
:1033600087B78F7D87BF83E00E947B17C09A0FBF0E
:103370000FB7F894112710921302109212020E94B4
:10338000BF08C09A89B78F7B89BF0FBF10926401B5
:1033900010926301DE98DD98DE9A81E00E948D0133
:1033A00007C08FB7F894992722E02093F4048FBFC9
:1033B000C0912A03D0912B030E945D0480910B09D8
:1033C00090910C09892B41F48FEF809340014F2D90
:1033D000BE018B850E945719DF91CF911F910F91EC
:1033E000FF900895AF92BF92CF92DF92EF92FF923B
:1033F0000F931F930E9482057B018C016091F8035B
:103400007091F9038091FA039091FB03A0909601CB
:10341000B0909701C0909801D0909901A114B10487
:10342000C104D10409F44EC0EFB7F89420919F0471
:1034300020FD36C0A8019701261B370B480B590BFE
:103440002A153B054C055D05C8F4A21AB30AC40A47
:10345000D50A8091960190919701A0919801B09121
:103460009901821B930BA40BB50B8093960190934B
:103470009701A0939801B093990115C081E090E065
:10348000A0E0B0E08093960190939701A0939801FB
:10349000B093990111E0A12EB12CC12CD12C03C005
:1034A0002E7F20939F048E2F99278FBF0E94820525
:1034B000AB01BC01B1E0EB2E9601850184E00E94D6
:1034C000630505C0809100048D7F809300041F91E7
:1034D0000F91FF90EF90DF90CF90BF90AF90089545
:1034E000FF920F931F93CF93DF93F82E282F33274C
:1034F0008BE090E0289FE001299FD00D389FD00DF0
:103500001124CC56DE4F81E090E0998388831A869F
:103510008A819B81AC81BD810097A105B105A1F095
:103520000FB7F8941127C9010E94C2060FBF1A8273
:103530001B821C821D821E821F82188619868F2D77
:103540000E943F110E94F219DF91CF911F910F91BC
:10355000FF900895C39719F480E00E94701A0895AF
:10356000AF92BF92CF92DF92EF92FF920F931F9391
:103570008091450190914601A0914701B091480189
:10358000B695A795979587958093B3029093B402CB
:10359000A093B502B093B6020E94DA04E090B302A1
:1035A000F090B4020091B5021091B602A801970103
:1035B0000E941A315B016C01AE0CBF1CC01ED11EF3
:1035C000A092B302B092B402C092B502D092B602F9
:1035D000109294080E948205AB01BC0101E0E02E2C
:1035E0009601850181E00E9463051F910F91FF9074
:1035F000EF90DF90CF90BF90AF900895AF92BF92C1
:10360000CF92DF92EF92FF920F931F93CF93DF93AE
:103610005B016C01C0E0D0E0E4EDF3E0608561FFA8
:10362000DAC02081318142815381E480F5800681B6
:103630001781D601C501821B930BA40BB50B8E1508
:103640009F05A007B10708F4C6C060FF03C06D7FE7
:10365000608708C02E0D3F1D401F511F20833183FE
:1036600042835383C23009F46CC0C33020F4C130AC
:1036700009F0B7C007C0C33009F46FC0C43009F007
:10368000B0C074C080917401882309F4AAC08091ED
:103690007501882309F4A5C080919408882349F511
:1036A00080E10E948D0181E10E948D01A090450181
:1036B000B0904601C0904701D09048018091B3027C
:1036C0009091B402A091B502B091B602A81AB90ABD
:1036D000CA0ADB0A81E0809394080E948205AB014C
:1036E000BC01E1E0EE2E9601850181E00E946305B8
:1036F00078C08091450190914601A0914701B09119
:103700004801880F991FAA1FBB1F80934501909302
:103710004601A0934701B09348018150904DA740C6
:10372000B04060F080E090EDA7E0B0E0809345010C
:1037300090934601A0934701B09348010E94B01AAC
:1037400050C080917401882309F44BC080917501A9
:10375000882309F446C080E106C080916E018F7E07
:1037600080936E018DE00E948D013BC02091FC038F
:103770003091FD034091FE035091FF03809196012B
:1037800090919701A0919801B09199010097A1059E
:10379000B105F1F082179307A407B507C9F480912A
:1037A0009E01882361F42FB7F89433278091460354
:1037B0008160809346032FBF83E10E948D0180E0EA
:1037C00090E00E94C20680E00E943F1110929E018C
:1037D0000E94F21906C021963996C530D10509F02C
:1037E0001DCF8BE00E948D01DF91CF911F910F9132
:1037F000FF90EF90DF90CF90BF90AF90089580E85A
:1038000090E0A0E0B0E08093450190934601A09342
:103810004701B09348010E94B01A0895EF92FF92B9
:103820000F931F930FB7F894112781E00E94FD09B1
:10383000A1E0EA2EF12CF0926901E0926801109269
:103840006A011092F40110922B020FBF0FB7F89487
:1038500011270E94BF08F0921302E0921202109208
:10386000B90289B78F7B89BF80E488BF8AB780623D
:103870008ABF8AB78F7E8ABF89B7806489BF0FBF2E
:103880008FB7F894082F11278091630190916401FC
:10389000049719F483E00E9476160FBF0FB7F894CF
:1038A0001127C09A80E00E947B170FBF8FB7F89452
:1038B000992722E02093F4048FBFF1E0FF2EF092CD
:1038C000740180917501882311F00E94DA048091BF
:1038D0006E01846080936E0190E080917101882375
:1038E00009F491E0992319F48DE00E948D018091F3
:1038F0006E01826080936E018FB7F89499272091B2
:103900003D0130913E018FBF3093ED042093EC04D4
:10391000809175018823E1F4F092750180E890E0D0
:10392000A0E0B0E08093450190934601A093470149
:10393000B09348010E94B01A0E948205AB01BC01FD
:10394000EE2400E010E220E030E082E00E94630517
:103950008091960190919701A0919801B091990161
:103960000097A105B10529F51092960110929701D3
:10397000109298011092990110929A0110929B0155
:1039800010929C0110929D0110929E0180E00E9475
:103990003F110FB7F894112780E090E00E94C20613
:1039A0000FBF0E94F21980E00E94701AF092D601B7
:1039B00003C080E00E94701A81E08093EB011F91A8
:1039C0000F91FF90EF900895CF92DF92EF92FF92C8
:1039D0000F931F93CFB6F894DD240E94DA04DC0124
:1039E000CB0166E470E00E94F330BBE0EB2EF12CDB
:1039F000E80EF91EF0924D09E0924C090E94DA0897
:103A000000271127A80197010E949709CFBE1F9197
:103A10000F91FF90EF90DF90CF9008951F93CF9379
:103A2000DF938FB7F894C82FDD271C2F8091680192
:103A3000909169010897C9F489E00E94761683E0A5
:103A40000E947B17C09A81E090E090936901809377
:103A500068018FB7F894992723E0209362018FBF04
:103A600082E00E948D01CFBF30C0C0988091500984
:103A7000882311F085E001C084E00E94761683FD62
:103A800009C080E00E94761683FF04C085E090E0C4
:103A900020E003C083E090E021E0909369018093EF
:103AA0006801C09A1FBF222341F01092D50183E024
:103AB0000E947B170E94E41C08C00E94DA0820E4E0
:103AC00031E040E050E00E949709DF91CF911F91D3
:103AD00008951F93CF93DF938FB7F8949927109190
:103AE00039018FBF123009F465C0133030F411234F
:103AF00059F0113009F0ACC048C0133009F474C05B
:103B0000143009F0A5C0A2C0C0988FB7F894C82F90
:103B1000DD2780916301909164010297A1F583E014
:103B200090E0909364018093630168E170E08DE11F
:103B30000E94A70381E080931A031092650180B36D
:103B4000992716E0969587951A95E1F78170907000
:103B500080931B0385E00E948D0181E00E94761610
:103B60006FE772E08CE10E94A7030E94B2090E94F5
:103B7000C30966E57AE287E10E94A7036FEF70E868
:103B800085E10E94A703CFBF63C0C09886E00E9472
:103B900076160E94B2090E94C3090E943D15C09A80
:103BA000C09883E00E947616C09A81E00E947B173D
:103BB00084E045C0C0988FB7F894C82FDD2760E037
:103BC00080E00E945203882311F0CFBF0AC0CFBF0C
:103BD00083E50E949B0380E00E949B0380E00E949B
:103BE0009B03C09A82E02FC08FB7F8949927209149
:103BF00068018FBF243039F0283041F0223011F5B0
:103C00000E94C31125C00E940E1D22C0C09889E0E9
:103C10000E947616C09A83E00E947B178FB7F894B3
:103C2000992721E030E030936901209368018FBF2C
:103C30008FB7F8949927109362018FBF82E00E949A
:103C40008D0106C083E00E947B1702C00E94C3164C
:103C5000DF91CF911F910895EF92FF920F931F93E1
:103C6000CF93DF938B0180911E0390911F0386FFFA
:103C700040C18F7B8F3309F08EC1C0919201D091EA
:103C80009301588150931402809112029091130273
:103C90008530910509F443C08630910509F48AC046
:103CA000029709F01FC185E090E090931302809382
:103CB00012024091F001852F99270196242F332776
:103CC000281739074CF1B79906C00E9904C0451B57
:103CD00041504093F001409114024A32E8F44423E9
:103CE000A1F0BE016F5F7F4F483018F047E050E011
:103CF00007C086E090E0909313028093120255274C
:103D000080E090E00E943C0446C11092B902C09A43
:103D100084E00E947B17E3C00E94FE173CC186E04E
:103D200090E090931302809312028091FD02882309
:103D300009F439C0809102058823A9F5898185FF9E
:103D400032C08F814E812FB7F894332760911603CC
:103D5000709117032FBF9927982F88275527842BF9
:103D6000952B8617970759F08F812E819927982FC9
:103D700088273327822B932B8F5F9F4FA1F4898154
:103D80008770813081F4C09AC0988AE00E947616CC
:103D9000C09AC0984091140247502896BE018FE304
:103DA0000E949116F8C0409114024750552728965A
:103DB000BE01A6CFC09A80912D02882339F484E0F9
:103DC0000E947B1780912D02882311F0B7990AC0B9
:103DD0000E9B08C09091FF08992321F08091140256
:103DE0008B3038F480919201909193010E94CB081E
:103DF0003DC0913001F5E0910809FF27EE0FFF1F4C
:103E0000EE0FFF1FE755F74F20813181428153812B
:103E1000E0919201F091930121ABBB27A52F942F44
:103E2000832F80ABCA01AA27BB2787A7252F33275B
:103E30004427552726A7809108099927019668E00D
:103E400070E00E940731809308098091FF0881503B
:103E50008093FF08882351F0809192019091930103
:103E60000E94CB08109208091092FF08809114025A
:103E7000FE01E80FF11D808187FF31C0012B79F130
:103E800069816770E0919201F0919301623019F5B8
:103E9000A091FE02B091FF02109709F18091680194
:103EA000909169010797D9F4ED019B81838198175F
:103EB000B1F487B78F7E87BF908181E08CA7E90F2F
:103EC000F11D8291319688A780818F7789A780E044
:103ED0000E940F1804C0613011F489E02AC00E94CA
:103EE000C91759C01092B902C09A84E00E947B178A
:103EF00052C08E3309F04FC0C09A809168019091F2
:103F000069010897C9F4C09889E00E947616C09AA2
:103F100083E00E947B1781E090E090936901809399
:103F200068018FB7F894992723E0209362018FBF2F
:103F300082E00E948D012FC080915009882349F4AE
:103F400084E090E090936901809368010E940E1DC7
:103F500022C083E00E947B1783E090E09093690188
:103F6000809368010E94DA04DC01CB0166E371E012
:103F70000E94F3300BE0E02EF12CE80EF91EF092D7
:103F8000EA01E092E9010E94DA0800271127A8015E
:103F900097010E949709DF91CF911F910F91FF9098
:103FA000EF9008951F920F920FB60F9211242F9346
:103FB0003F934F935F936F937F938F939F93AF93B1
:103FC000BF93EF93FF932FB1E0916904F0916A04DE
:103FD000309739F08091360390913703E80FF91F3D
:103FE0002083809136039091370301969093370395
:103FF0008093360380E00E94690340919F015091B5
:10400000A00180913603909137038417950718F427
:104010000E94CE031CC06091690470916A04809173
:1040200013099091140910926A0410926904109275
:104030001409109213091092A00110929F0110927E
:104040003703109236032FB120E00E942C1EFF91FF
:10405000EF91BF91AF919F918F917F916F915F9100
:104060004F913F912F910F900FBE0F901F90189579
:104070000F931F930FB7F894112740919F01509110
:10408000A0016091690470916A0480911309909174
:10409000140910926A041092690410921409109283
:1040A00013091092A00110929F01109237031092F1
:1040B000360320E00E942C1E0FBF1F910F91089520
:1040C0003F924F925F926F927F928F929F92AF92A8
:1040D000BF92CF92DF92EF92FF920F931F93CF93F5
:1040E000DF93CDB7DEB7AC970FB6F894DEBF0FBE47
:1040F000CDBFE82FFF27ED31F10510F00C94C92951
:10410000EA5BFF4FEE0FFF1F0590F491E02D09943D
:1041100080910909882309F099C60C94C9298FB7A1
:10412000F8942091460320FF02C00C943F2820E021
:104130000C94432880910803882311F40C94C92916
:1041400090E011E00C9451280E940E1C0C94C92997
:104150008FB7F89499271092F4048FBF10927401CE
:1041600080916E018B7F0C94BE290E9495190C944E
:10417000C9290E9492100C94C9298FB7F8949927E5
:1041800010924E090C9472298FB7F894282F332778
:1041900080916501882319F02FBF0C94C9292FBF86
:1041A00080B3992726E0969587952A95E1F7182FF1
:1041B000117090911A0380911B038917D9F0191778
:1041C000C9F484E090E090936401809363018FB719
:1041D000F894992721E0209365018FBF60E070E09B
:1041E0008DE10E94A7030E943D15C09AC09880E00F
:1041F0000E948D0110931B0385E04FC70E94691D2B
:104200000C94C9290E9438200C94C9290E94840367
:104210000C94C929A0919201B0919301DC909D0169
:104220002D0D311DF9018081881F8827881FFD0110
:1042300083A7F90180818F77FD0181A7215030404C
:10424000F9018081FD0180A7A0919201B0919301B5
:10425000FD0132818FB7F894992720912C028FBFEE
:10426000222309F490C0832F9927969587959695D8
:104270008795837090708230910541F587814681E2
:104280002FB7F894332760911603709117032FBF4F
:104290009927982F88275527842B952B86179707C2
:1042A00019F481E090E06CC0FD018781268140E037
:1042B00050E09927982F88273327822B932B8F5FE5
:1042C0009F4F11F441E050E0CA015AC0039709F032
:1042D0006FC49E012D5F3F4F43E055E088E0FA0137
:1042E0000190AF01F90101929F018150C1F79E0138
:1042F0002D5D3F4FAE014D5F5F4F88E0FA010190A9
:10430000AF01F90101929F018150C1F79E01255F24
:104310003F4FAE014D5D5F4F88E0FA010190AF0164
:10432000F90101929F018150C1F79E012D5E3F4F1F
:10433000AE01455F5F4F88E0FA010190AF01F901DE
:1043400001929F018150C1F79E01255E3F4FAE0152
:104350004D5E5F4F88E0FA010190AF01F9010192D3
:104360009F018150C1F748E050E0BE01655E7F4F7C
:10437000CD0106960E949730892B09F019C403C01D
:10438000882309F415C4FCE0FD1508F011C4E09081
:104390009201F0909301FCA6EBA6F7012281822FF7
:1043A0009927F6E096958795FA95E1F7039719F422
:1043B00068E070E002C062E070E0822F9927969575
:1043C00087959695879583709070039719F488E088
:1043D00090E002C082E090E026E030E0E20EF31EC2
:1043E00040E050E020E030E0F701E80FF91F8AEFED
:1043F0009FEFE80EF91E05C08191480F511D2F5FF8
:104400003F4F26173707C4F3F70163818FEF80937F
:104410000D098FB7F894782F20E030E0EDEDF1E052
:10442000808191818417950731F48281861709F480
:10443000B0C320930D092F5F3F4F339624303105D1
:1044400079F77FBF90910D093FB7F8949F3F21F016
:1044500080916B01891799F420916B01822F992724
:10446000FC01EE0FFF1FE80FF91FE352FE4F5183CF
:10447000408362832F5F237020936B010CC0892FD0
:104480009927FC01EE0FFF1FE80FF91FE352FE4FC3
:10449000518340836283832F99278FBF0FB7F8948E
:1044A0001127C7010E94F402FC0190810FBFF701A0
:1044B00083A5882309F476C39F3309F073C38781EA
:1044C00046812FB7F894332760913D0170913E01EA
:1044D0002FBF9927982F88275527842B952B861730
:1044E000970761F0878126819927982F882733279E
:1044F000822B932B8F5F9F4F09F022C76D2D6D503C
:10450000BCE04B2E512C4E0C5F1CF7018385992784
:10451000803709F4C7C0813730F4803641F08136E6
:1045200009F040C397C0813709F03CC347C2F70187
:10453000848525859927D82ECC243327C22AD32ACF
:104540002685778590897188F3E3CF16D10421F011
:1045500088249924540108C08090780190907901B2
:10456000A0907A01B0907B018091EB01882309F43F
:1045700019C3892F9927AA27BB27EE24F82E092FC4
:104580001A2F332744275527522F44273327222712
:10459000872F9927AA27BB27DC0199278827282B53
:1045A000392B4A2B5B2B872D9927AA27BB27282B32
:1045B000392B4A2B5B2BE22AF32A042B152B81146F
:1045C0009104A104B104A9F4E114F1040105110559
:1045D000A1F123E3C216D10409F0E4C26650A80198
:1045E0009701C20106960E94551680E00E94701A3B
:1045F000D9C2E114F10401051105B1F0D801C701D8
:1046000088199909AA09BB09181619061A061B0662
:104610007CF433E3C316D10439F46650A801970142
:10462000C20106960E945516C6010E94AA1ABAC275
:10463000E814F9040A051B0559F443E3C416D10430
:1046400009F0B0C280919E018F5F80939E01AAC243
:10465000C60125C08091EB01882309F4A3C2F701AC
:10466000848525859927982F88273327822B932B9C
:10467000C39709F097C28091780190917901A09138
:104680007A01B0917B010097A105B10509F48AC2B6
:10469000D2018C919927982F8827822B932B0E94E7
:1046A0006D1480C2F701878126819927982F88276A
:1046B0003327822B932B8F5F9F4F09F08EC0F7011A
:1046C000818520859927D82ECC243327C22AD32A46
:1046D00004850E947807C6010E948F048F3F21F055
:1046E000F701658577270CC00E942B08182F8F3F94
:1046F00051F0B6010E943D08F70165857727812FAB
:104700000E9479071CC087E30E945208182F8F3F30
:1047100009F461C0282F33278EE090E0289FF00134
:10472000299FF00D389FF00D1124E95BFC4F80812B
:1047300091810E94FD10B601812F0E943D085FE02B
:10474000952E902209F447C0D7018C918D508D3160
:1047500018F020E030E003C09701245F3F4F89014B
:10476000080F111D83E0989EC0011124081B190B2E
:104770008FB7F894992760903D0170903E018FBFEC
:10478000AA2483E0A89EF0011124E00FF11F80818C
:1047900021819927982F88273327822B932B8615E1
:1047A0009705B1F4B280C6010E948F048F3F81F05B
:1047B000282F33278EE090E0289FF001299FF00DED
:1047C000389FF00D1124E95BFC4FB18686E08783AA
:1047D000A394A914B1F60E947807C7010E94B008FB
:1047E000182F682FC7010E94A9056C01153009F028
:1047F000D9C1F7011185908460E4C7010E949B082C
:10480000382E56010894A11CB11CF60181812501A6
:104810000894411C511CF50121819927982F882764
:104820003327822B932B8F5F9F4F09F4BFC0812FBB
:104830009927182F0027892D9927082B192B83E0FA
:10484000882E912C8C0C9D1CF6018381B4E06B2E7C
:10485000712C6C0C7D1C24819927982F8827332775
:10486000822B932B892B51F5C8010E948F048F3F17
:1048700011F50E942B088F3F11F0B8011AC080E09B
:104880000E945208D82EFFEF8F17A9F0282F332748
:104890008EE090E0289FF001299FF00D389FF00DE9
:1048A0001124E95BFC4F808191810E94FD10B801C9
:1048B0008D2D0E943D08C8010E94C004D4019C9027
:1048C000F3018080D501BC90F201A080C8010E9454
:1048D000A7046C01C8010E947B08482F8A3009F4A4
:1048E0003FC0892D9927782F6627882D9927682B17
:1048F000792B8B2D9927382F22278A2D9927282B22
:10490000392B8091F3014817D1F4F2E3CF16D1048B
:1049100038F5E42FFF2753E0EE0FFF1F5A95E1F71C
:10492000E15DFD4F118300833383228375836483AC
:1049300081E0868317824F5F4093F30111C0E42F1B
:10494000FF2793E0EE0FFF1F9A95E1F7E15DFD4F22
:1049500011830083338322837583648381E086839C
:1049600080914401882311F5C8010E947B08E82F3B
:104970008091F301E81748F4FF2783E0EE0FFF1F53
:104980008A95E1F7E15DFD4F378280919F0888238A
:1049900011F0332049F080919A0890919B0880177C
:1049A000910721F4332011F00E94B40160E8C7019F
:1049B0000E949B08882309F4F5C0F2C0F7018585A1
:1049C0008F5F85876D3108F0EDC0C7010E94160624
:1049D00020E09091DB01891708F421E0222309F0FF
:1049E000E1C010917101812F9927C82E8823B9F158
:1049F000C7010E940C065C01D0906F01D10EDA94C1
:104A0000CA94FDE0FD1510F0ED2D02C0ED2DEE5025
:104A1000FF27EE0FFF1FE858F74F0190F081E02DC0
:104A200000811181C8010E940C068A159B0509F0BE
:104A30008DC4F8019289F7018289981709F086C41C
:104A4000F8019585F7018585981709F07FC4F8016D
:104A50009389F7018389981709F078C4A3C08091DE
:104A6000DC01882309F09EC020912903222309F448
:104A700081E0882309F096C090912803992309F4D6
:104A800081E0882309F08EC0992309F48BC08091BE
:104A90000A09E82FFF27EE0FFF1FEF5AF64F00819C
:104AA0001181118210829150909328038F5F80931F
:104AB0000A098C3011F410920A090115110509F444
:104AC00071C0222309F46EC080910503E82FFF27EF
:104AD000EE0FFF1FEC52FB4FC080D180118210827D
:104AE0002150209329038F5F809305038C3011F4AC
:104AF00010920503C114D10409F454C084E3D60113
:104B00001D928A95E9F7E8E2F0E0EE0EFF1E8CE0D8
:104B1000D7011D928A95E9F7E8EDFFEFEE0EFF1E33
:104B2000D801ED92FC928FEFF80182838EE18383AE
:104B3000C8010E947004882329F5CE0101960E94C5
:104B400097068823B1F4F701868527859927982F42
:104B500088273327822B932B29813A8128173907FD
:104B600040F00E94FF1B6CE170E08CE190E00E943D
:104B700074188091F70381FD02C00E94B901DCA680
:104B8000CBA610C0C6010E945906C8010E94780633
:104B900009C07FBF07C0F70184858078803811F491
:104BA0000E94FF1B2BA53CA53093930120939201FB
:104BB0008FB7F89499271092B9028FBF0E94C91736
:104BC000E8C380912A02882361F52091A5083091DD
:104BD000A6084091A7085091A808EFB7F894FF27BE
:104BE0006091EF047091F0048091F1049091F204CF
:104BF000E090EC01F090ED010091EE011091EF01D9
:104C00006E0D7F1D801F911FEFBF2093A50830936D
:104C1000A6084093A7085093A80810922A020E9461
:104C20005E070E948205B3C30E9482055B016C018E
:104C30008FB7F894992710922D038FBF6FEFE62E50
:104C40006FEFF62E6FEF062F6FE7162F60E0E4EDA3
:104C5000F3E0808581FF1CC080819181A281B381B6
:104C6000A6019501281B390B4A0B5B0BDA01C90120
:104C70002481358146815781281B390B4A0B5B0BF8
:104C80002E153F05400751071CF479018A0161E0A8
:104C9000399634E0E130F307E1F6662309F479C38D
:104CA0001E141F04100611060CF06FC3E092A50835
:104CB000F092A6080093A7081093A80881E08093BB
:104CC0002A02A8019701C601B5010E945E0761C3CF
:104CD0009091040380914001981709F45AC390936E
:104CE0004001992309F437C38FEF8093400151C3EA
:104CF00080916E0184FD4DC390E080917101882305
:104D000009F491E0992309F044C38091DC018823E0
:104D100059F420E080919A0890919B088F5F9F4FF3
:104D200009F021E0222331F0CE0101960E9497067E
:104D3000882339F060E177E280E090E00E94581823
:104D400028C3E0916F01FF27EE0FFF1FE858F74FD0
:104D500000811181D801ED91FC91F080C0909A08FA
:104D6000D0909B08CF010E94160620E09091DB01B5
:104D7000891708F421E0222309F0F0C28091DC01B8
:104D8000D801ED91FC91882381F0A0911803B09196
:104D9000190384E301900D928150E1F760E0F8017E
:104DA000808191810E949218F4C289819A818787BB
:104DB000892F99278687D801ED91FC9111978485D9
:104DC0008F7384874D915C91DA011196FD01818189
:104DD000FA0121819927982F882733272062822B77
:104DE000932B8183892F9927FD01818380916E0107
:104DF000886080936E0180FF0BC0D801ED91FC911B
:104E000084858064848780916E018E7F80936E019B
:104E1000D801ED91FC91C6828D2D9927878381E77A
:104E20008387B3EFFB0E4F2D5527BF0180E00E9413
:104E300058139927882309F49EC2823009F0A9C229
:104E4000D801ED91FC9189E2808392C251E0D52E88
:104E5000EE24FF2408E313E0909109098D2D8923A6
:104E600071F0F80160817181118210828D2D809521
:104E700098239093090943E08E2D0E941D190894F0
:104E8000E11CF11C0E5F1F4FF8E0EF16F10409F46E
:104E900080C2DD0CE1CF80914301E82FFF27EE0FA8
:104EA000FF1FE85CFC4F6081718141E00E943C196A
:104EB00070C28091DC01882309F06BC2AA24BB2454
:104EC0003FEFE32EF32E2FEF822E922ECC24DD2403
:104ED00043C0022F112793E0000F111F9A95E1F7AD
:104EE000015D1D4FF80122813381FFEF2F3F3F0706
:104EF00081F18091EC049091ED042817390749F174
:104F0000D8018D919C910E94A7043C01F801648115
:104F10007581AC01460F571F2081318180919A081D
:104F200090919B08A7812817390741F470939D0839
:104F300060939C08A0939F084A010BC0AA2349F4E0
:104F4000F2E36F16710428F44E155F0510F4580152
:104F50007A010894C11CD11C2C2D8091F301C81634
:104F600008F4B7CF2FEFE2162FEFF20609F46EC068
:104F70003FEF83163FEF930691F080919F088823BF
:104F800041F080919C0890919D080A96E816F906D8
:104F900030F0C7010F968815990508F057C0809129
:104FA000030990910409A0910509B09106090196A1
:104FB000A11DB11D8093030990930409A0930509D5
:104FC000B093060980919A0890919B080E948F04E3
:104FD0008F3F81F0282F33278EE090E0289FF0014B
:104FE000299FF00D389FF00D1124E95BFC4F85815E
:104FF000877F8583D5018D919C910E94C004F50126
:10500000808191810E948F048F3F41F0EEE08E9F5E
:10501000F0011124E95BFC4F15861486D5018D91B2
:105020009C9190939B0880939A08F50184819581C7
:1050300090939D0880939C08878180939F08C4016A
:105040008E199F09459710F00E94FF1B80917701F0
:10505000882361F4FFEF8F16FFEF9F0639F42FEFDF
:10506000E2162FEFF20611F00E94B90110927701BB
:1050700090C10E9497138DC10E9475158AC12E7F21
:105080002093460321E099278FBF222309F481C191
:1050900083E390E00E946D1483E10E948D0179C149
:1050A000110F20910803812F8223C1F0E92FFF27E0
:1050B000EE0FFF1FE753F74F40815181118210829D
:1050C000812F8095282320930803992339F463E0E6
:1050D000CA010E94C410110F91E0E3CF9F5F983086
:1050E000F8F257C180914901E82FFF27EE0FFF1F0B
:1050F000E753F74F6081718141E00E94D41049C1AC
:105100008FB7F89410924B092091D10440E02830D9
:1051100009F441E030E0293009F431E0442311F48E
:10512000332351F01092D104E091D303FF27EE0F07
:10513000FF1FEE5DFC4F108299278FBF442311F4AF
:10514000332331F19FB7F894809107098F5F8093E3
:10515000070980911103833479F420912F03809102
:105160002E03821779F0822F8F5F80932F03863072
:1051700048F010922F0306C0A0E0442309F4A1E0F8
:1051800071E002C0A0E070E0892F99278FBF06C0B0
:10519000222311F0FF246DC0A0E070E08FB7F894D7
:1051A000992720917C018FBF222341F08FB7F8947B
:1051B00099272AE02093D1048FBF42C08FB7F8947B
:1051C000992760912203409124038FBF8FB7F894F1
:1051D000282F332750E090912E0380912F039817AA
:1051E00009F451E02FBF552341F5662331F55FB730
:1051F000F89482E0809322038FB7F894282F332706
:1052000040E090912E0380912F03981709F441E01C
:105210002FBF442311F080E006C0E0912F03FF2749
:10522000E25DFC4F82818093230383E4809311032A
:105230001092D303852F99270EC04150423010F0B1
:10524000FF240CC08FB7F894992725E4209311030D
:1052500021E02093D3038FBFB1E0FB2E772349F0E9
:105260008FB7F8949927A09385018FBF8AE10E9498
:105270008D018FB7F894082F11278091D1048A30BF
:1052800009F47FC00FBFFF2009F483C02FB7F89443
:10529000332710926A09109269091092090381E07C
:1052A0008093D1042FBF0E94E002882309F471C0CB
:1052B0008FB7F894992729E02093D1048FBF0E94DB
:1052C000BE0167C0569857981092A0041092F10240
:1052D000539A549A579A8FB7F89499271092D104F9
:1052E0001092BA028FBF55C089E1D7CE5398549817
:1052F00050C00E9426184DC08FB7F894992720916E
:105300008A0130918B014091F2018FBF8FB7F894E1
:10531000E42FFF27EE0FFF1FE55BFE4F3183208355
:1053200020917D01442311F02B7F01C02D7F20931C
:105330007D01109288019927D5CF0E94F01029C0D5
:10534000F7018385813709F02DCC25CCDA94CC2068
:1053500009F485CB55CB0E9479191BC00E94F10539
:10536000D8018D919C910E945906C8010E9478062F
:105370000E94B9010EC080916E01806180936E0120
:1053800008C00E949A020FBF04C0C601B5010E9466
:10539000FE1AAC960FB6F894DEBF0FBECDBFDF91FC
:1053A000CF911F910F91FF90EF90DF90CF90BF9022
:1053B000AF909F908F907F906F905F904F903F90B5
:1053C0000895809100098F3FB1F0282F3327F9010C
:1053D000EB50FE4F8081809300098F3F11F4809342
:1053E0004F098FEF80832F3F31F0822F0E94602082
:1053F00081E090E0089580E090E0089578941F9215
:105400000F920FB60F9211242F923F924F925F92FC
:105410006F927F928F929F92AF92BF92CF92DF92C4
:10542000EF92FF920F931F932F933F934F935F93AE
:105430006F937F938F939F93AF93BF93CF93DF939C
:10544000EF93FF93C6B5D7B58FB7F894282E0E9477
:10545000DA089B012C1B3D0B442755272B013C01EF
:10546000421A530A640A750A809168019091690191
:105470008530910521F0069709F0E0C0BFC086E0B5
:1054800090E0909369018093680131E0332E30926F
:10549000B70210926A0180E00E94FD09E091FE02CD
:1054A000F091FF0241AABB27A72D962D852D80AB39
:1054B000C301AA27BB2787A7872D9927AA27BB2720
:1054C00086A7E091FE02F091FF0285A5882309F4EA
:1054D00084C06081655077274F01860E971EF401C6
:1054E0002081E1808281A3809927AA27BB27BA2F38
:1054F000A92F982F8827332744275527522F442731
:1055000033272227FF24002711278701FF24EE24B9
:105510002E293F29402B512BBB24CC24DD242A29C2
:105520003B294C295D29822B932BA42BB52B841965
:105530009509A609B7098383292F3A2F4B2F5527A1
:1055400022839D014427552721838B2F9927AA2742
:10555000BB278083C09824E0A40180E090E00E94F3
:10556000FC14C09AF4012081E1808281A3809927F4
:10557000AA27BB27BA2FA92F982F8827332744277C
:105580005527522F442733272227FF24002711278E
:105590008701FF24EE242E293F29402B512BBB24C9
:1055A000CC24DD242A293B294C295D29822B932BED
:1055B000A42BB52B840D951DA61DB71D8383292F04
:1055C0003A2F4B2F552722839D01442755272183AE
:1055D0008B2F9927AA27BB278083E091FE02F091A9
:1055E000FF02818185FF02C03092F40183E00E94B6
:1055F0007B1787B78F7E87BF84997AC01092B702D6
:1056000081E00E94FD09E091FE02F091FF0281819C
:1056100085FF0FC087E090E0909369018093680157
:105620000E94DA0820E031E040E050E00E94970953
:1056300003C080E00E940F18849B5AC080916A01C9
:10564000882391F58091B702882371F511E01093BA
:10565000B7020E94FD0980B32091FF08283098F41A
:10566000E0910809E20FFF27E770F070EE0FFF1FCF
:10567000EE0FFF1FE755F74F40825182628273821F
:105680002F5F2093FF0810936A01D0932103C093EA
:10569000200384992DC0992734E0969587953A95F3
:1056A000E1F7182F117001C010E08091B70281302E
:1056B000F9F41092B7020E94FD0910926A011123B9
:1056C000B9F48091200390912103C81BD90B2A972C
:1056D00078F48091FF08882319F081508093FF08A7
:1056E0008091FE029091FF02009711F00E94CB087A
:1056F0002FBEFF91EF91DF91CF91BF91AF919F911D
:105700008F917F916F915F914F913F912F911F9159
:105710000F91FF90EF90DF90CF90BF90AF909F9050
:105720008F907F906F905F904F903F902F900F9051
:105730000FBE0F901F90189578941F920F920FB67E
:105740000F9211241F932F933F934F935F936F9367
:105750007F938F939F93AF93BF93EF93FF9387B7FD
:105760008F7E87BF78941FB7F89480910A03909139
:105770000B03A0910C03B0910D030097A105B10597
:1057800009F051C0809168019091690185309105BF
:1057900061F18630910530F48330910549F004972A
:1057A00081F51AC087309105F1F0089751F514C0C2
:1057B000869B0FC084E090E090936901809368011C
:1057C0000E94DA0827E030E040E050E00E949709AC
:1057D00018C00E94E41C15C00E94B510882389F4EB
:1057E0000E940E1D0EC080E00AC089E00E9476165D
:1057F00081E00E94FD0983E00E947B1787E00E9400
:105800000F188091630190916401019771F482E017
:1058100090E09093640180936301DE98DE9A80E0CB
:105820000E94401002C00E94F708812F99278FBF65
:10583000FF91EF91BF91AF919F918F917F916F9168
:105840005F914F913F912F911F910F900FBE0F903D
:105850001F901895CFECD0E1DEBFCDBFFFB6F89416
:105860004DE150E06FEF70E085EF91E00E94AD30C8
:105870008FEF8093000980934F0981E08EBD88E00F
:1058800080BF83E083BF8CB59DB54AE72CB53DB59D
:105890002817390708F44150442311F0C901F6CF05
:1058A00092B782B78917E9F32CB53DB592B782B7A5
:1058B0008917E9F38CB59DB5821B930B409665E083
:1058C000969587956A95E1F790930209809301096F
:1058D00013BE83B78EBD8EB580BF12BE1DBC1CBC6F
:1058E0008FEF86BF86B780937C0080B7992787703B
:1058F0009070892BD1F7D29AD19AD09ADA9AD99A04
:10590000D89A15BA8FEF84BBD498DC98109289008E
:105910001092880080917D00846080937D0080914A
:105920008A00887F826080938A001DBC1CBC87B778
:10593000846087BF8EB5887F84608EBD0E94E12918
:105940008823E1F781E591E09093700980936F09D6
:1059500012E006E0609101097091020988279927F9
:105960005CE0660F771F881F991F5A95D1F720E0DA
:1059700031EE40E050E00E941A312150304029B908
:10598000832F9927809390001BB9009395001AB834
:10599000209399008093980010939B0000939D00A2
:1059A00010929A0084E490E09093A1088093A0085C
:1059B00010922203109224038AE08093D104109263
:1059C0000903109211031092070910926A091092AC
:1059D000690910924B091092D30310929608109205
:1059E000950884E08093BA021092D3041092A40820
:1059F0001092F202109243031092420310922F036E
:105A000010922E031092910180E094E09093950102
:105A10008093940110929E0110929601109297012A
:105A2000109298011092990110929A0110929B0184
:105A300010929C0110929D011092460310929F04B7
:105A400010922C031092DB01E1E5F9E081EA94E089
:105A500081939193049629E0E936F207C9F78CE027
:105A60008093280310920A09E4EDF4E086E096E0C2
:105A700081939193C49624E0EC3EF207C9F78CE041
:105A800080932903109205038FEF80932E02EDED92
:105A9000F1E08FEF9FEF918380831282339621E0B4
:105AA000E93EF207C1F70E94DA046093770880911B
:105AB0003701909138010196AA27BB2780930003F4
:105AC00090930103A0930203B093030380B788600F
:105AD00080BF8BE083BF86EE81BF87B7826087BFC0
