S01800006275696C642F6D6963617A2F6D61696E2E73726563E5
S11300000C94EB010C946A0C0C94740C0C947E0C00
S11300100C94880C0C94920C0C949C0C0C94DE168E
S11300200C94A60C0C940A020C940A020C94BC20A6
S11300300C945A220C94340C0C944A0C0C942A11EF
S11300400C94230C0C948E240C945F0E0C940A02D2
S11300500C94DB0E0C9461100C940A020C940A02AA
S11300600C943F0C0C942E100C940D100C9418103E
S11300700C9423100C9441100C94F00F0C940A026D
S11300800C9402100C940A020C940A02A811AD11EB
S1130090A311A811AD11A3119E11A811AD11A311A3
S11300A09E11A811AD11A311A811AD11A3119E1198
S11300B0A811AD11A3119E11A811AD11A311151210
S11300C01C120E1215121C120E12071215121C12FB
S11300D00E12071215121C120E1215121C120E12F9
S11300E0071215121C120E12071215121C120E12F0
S11300F066126B12611266126B1261125C12661246
S11301006B1261125C1266126B12611266126B1230
S113011061125C1266126B1261125C1266126B122F
S11301206112811C8C1C761C811C8C1C761C6B1C23
S1130130811C8C1C761C6B1C811C8C1C761C811CE9
S11301408C1C761C6B1C811C8C1C761C6B1C811CEF
S11301508C1C761CE11CEC1CD61CE11CEC1CD61C73
S1130160CB1CE11CEC1CD61CCB1CE11CEC1CD61CCF
S1130170E11CEC1CD61CCB1CE11CEC1CD61CCB1CBF
S1130180E11CEC1CD61CA836AC36B036B436BA36F4
S1130190BE36C236CA360637323736373A37953B1B
S11301A0C83B1A3C2C3C113D253D293D2C3D813D4D
S11301B03A403D404040434046404D40504053400B
S11301C0564018419D3669406C40F840FB40FE4063
S11301D000002110422063308440A550C660E770BF
S11301E0088129914AA16BB18CC1ADD1CEE1EFF167
S11301F03112100273325222B5529442F772D6620F
S1130200399318837BB35AA3BDD39CC3FFF3DEE3B6
S11302106224433420040114E664C774A44485545E
S11302206AA54BB528850995EEE5CFF5ACC58DD506
S11302305336722611163006D776F6669556B446AE
S11302405BB77AA719973887DFF7FEE79DD7BCC756
S1130250C448E5588668A7784008611802282338FE
S1130260CCC9EDD98EE9AFF9488969990AA92BB9A6
S1130270F55AD44AB77A966A711A500A333A122A4E
S1130280FDDBDCCBBFFB9EEB799B588B3BBB1AABF6
S1130290A66C877CE44CC55C222C033C600C411C9E
S11302A0AEED8FFDECCDCDDD2AAD0BBD688D499D46
S11302B0977EB66ED55EF44E133E322E511E700EEE
S11302C09FFFBEEFDDDFFCCF1BBF3AAF599F788F96
S11302D08891A981CAB1EBA10CD12DC14EF16FE176
S11302E08010A100C230E3200450254046706760AE
S11302F0B9839893FBA3DAB33DC31CD37FE35EF3C6
S1130300B1029012F322D2323542145277625672FD
S1130310EAB5CBA5A89589856EF54FE52CD50DC515
S1130320E234C324A014810466744764245405444D
S1130330DBA7FAB79987B8975FE77EF71DC73CD765
S1130340D326F2369106B01657667676154634569D
S11303504CD96DC90EF92FE9C899E9898AB9ABA9B5
S11303604458654806782768C018E1088238A328ED
S11303707DCB5CDB3FEB1EFBF98BD89BBBAB9ABB05
S1130380754A545A376A167AF10AD01AB32A923A3D
S11303902EFD0FED6CDD4DCDAABD8BADE89DC98D55
S11303A0267C076C645C454CA23C832CE01CC10C8D
S11303B01FEF3EFF5DCF7CDF9BAFBABFD98FF89FA5
S11303C0176E367E554E745E932EB23ED10EF01EDD
S11303D000081C18141011241FBECFEFD0E1DEBF9B
S11303E0CDBF11E0A0E0B1E0E8EFFCE800E00BBF16
S11303F002C007900D92AA33B107D9F71AE0AAE315
S1130400B1E001C01D92A83EB107E1F70E944E4140
S11304100C947B460C9400008FB7F89499270895A8
S11304208FBF089590912F039923A1F021E0E9E370
S1130430FAE0892F822329F011821082822F80957D
S1130440982332968AE0E934F80711F0220FF1CFAD
S113045090932F030895282F9FB7F894E82FFF2730
S1130460E752FE4F80818F3F81F4E091C50AE21785
S113047071F40BC02093720A04C0FF27E752FE4FA9
S113048020832093C50A20E007C025E005C08091A1
S1130490720A8F3F91F7EECF892F99278FBF822F52
S11304A09927089587E00E942B029927089581E0F7
S11304B00E942B029927089580E00E942B0299271D
S11304C008958FE10E942B029927089580E20E94EB
S11304D02B02992708951F931FB7F8948091C00A9F
S11304E0882341F48FE00E942B02882319F481E0D1
S11304F08093C00A812F99278FBF1F910895382FA9
S1130500FA01422F2D3118F082E090E008956683BD
S1130510872F992785833387218780914B01909179
S11305204C01892B19F085E090E008952FB7F894D9
S1130530332785E080934E0110924F01F0934A01D6
S1130540E093490182E090E090934C0180934B0149
S11305501092510110925001445F40934D012FBFFE
S11305608FB7F894282F33278091E1048A3011F44F
S11305702FBF19C02FBF9FB7F894809149038823D8
S113058011F020E006C081E08093490310924A03F1
S113059021E0892F99278FBF222329F00E946B0223
S11305A080E090E0089510924C0110924B0181E09C
S11305B090E008951F93CF93DF93E82FFF27EE0F6A
S11305C0FF1FE75CF54F1182108280913801992753
S11305D0019662E070E00E94FB45682F8093380129
S11305E010E0462F5527FA01EE0FFF1FE75CF54F89
S11305F0A081B181109799F0E62FE695E695E695EE
S1130600FF27E15DFC4F808199279A0127703070A4
S113061002C0959587952A95E2F780FF0DC0CA011F
S1130620019662E070E00E94FB45682F1F5F123064
S1130630C1F6109338011AC0609338016230B0F4E7
S1130640FD01359624813327ED016D817727762FBF
S1130650662781819927682B792BAD0186810E94B9
S11306607F02882319F084E20E942B02DF91CF914C
S11306701F91089580913801E82FFF27EE0FFF1F87
S1130680E75CF54F6081718141E00E94DA020895D0
S1130690CF92DF92EF92FF920F931F93CF93DF934A
S11306A06C018B017A01E901232B19F1FB0153E061
S11306B0F695E7955A95E1F7EE0DFF1D8081992790
S11306C09B012770307002C0959587952A95E2F7B3
S11306D080FF06C0F6017183608380E090E00BC068
S11306E0CB010196BE010E94E745BC01801791072A
S11306F0E9F681E090E0DF91CF911F910F91FF9097
S1130700EF90DF90CF900895CF93DF93982F8FB71A
S1130710F894282F3327422F80915E01882321F5F6
S113072081E080935E0190938B072FBF8FB7F8947D
S1130730C82FDD279C2F80913301843099F4809158
S11307405E01813021F48CE10E942B0209C08230C9
S113075049F480918B078093330183E080935E0199
S1130760CFBF07C09FBF05C080918B07891721F4B5
S11307702FBF80E090E021C0E92FFF27E558F54F17
S113078080818F3F89F4E0913201E91789F40CC02C
S11307909093310104C0FF27E558F54F908390935F
S11307A0320180E090E002C085E090E04FBF05C0D8
S11307B0809131018F3F79F7EBCFDF91CF9108958D
S11307C0CF92DF92EF92FF920F931F93CF93DF9319
S11307D0782FC62FDD278BE090E0C89FF001C99FDA
S11307E0F00DD89FF00D1124EA5AFC4F8081882324
S11307F019F085E090E048C0643018F480E091E09E
S113080002C080E090E0AA27BB27BA2FA92F982F17
S1130810882782179307A407B507A0F1821B930BBF
S1130820A40BB50B8C159D05AE05BF0558F18BE0E7
S113083090E0C89FF001C99FF00DD89FF00D1124DE
S1130840EA5AFC4F70832383348345835683C782DB
S1130850D086E186F28612830183613069F06130CB
S113086028F0623059F0633059F003C080E00E94F0
S1130870840380E090E008C081E0F9CF82E0F7CF04
S113088083E0F5CF86E090E0DF91CF911F910F9147
S1130890FF90EF90DF90CF900895EF920F931F9306
S11308A0AE2D99E0899FF0011124E85DFB4F408350
S11308B05183628373830483158326833783A170F2
S11308C080858E7F8A2B826080878DE00E942B0238
S11308D01F910F91EF9008957FB7F89462B720911C
S11308E0B0013091B1014091B2015091B30106B60B
S11308F001FE0FC081B792B7280F311D411D511D54
S11309002F5F3F4F4F4F5F4F290F311D411D511D29
S113091004C0260F311D411D511D872F99278FBFFC
S1130920CA01B9010895AF92BF92CF92DF92EF92BC
S1130930FF920F931F93F82E5A016B010E946C04CF
S1130940AB01BC01F1E0EF2E960185018F2D0E94D1
S11309504D041F910F91FF90EF90DF90CF90BF90C7
S1130960AF9008952F923F924F925F926F927F9231
S11309708F929F92AF92BF92CF92DF92EF92FF92AB
S11309800F931F93CF93DF93CDB7DEB729970FB69D
S1130990F894DEBF0FBECDBF6FB76983F894209083
S11309A024033090250340902603509027036624A7
S11309B0772488241EE4A12EB3E8BB2ECC24DD24A6
S11309C0EE24FF2400E010E0222D332D442D552D7C
S11309D0662D772D882D90E00E941E442A833B8348
S11309E04C835D836E837F8388879987822E932EC1
S11309F0A42EB52E2401350100E20E941C45A22E2E
S1130A00B32EC42ED52EA301920156954795379542
S1130A1027952A0D3B1D4C1D5D1D57FF05C05F77B3
S1130A202F5F3F4F4F4F5F4F209324033093250395
S1130A304093260350932703E9818E2F99278FBF74
S1130A40CA01B90129960FB6F894DEBF0FBECDBF17
S1130A50DF91CF911F910F91FF90EF90DF90CF9096
S1130A60BF90AF909F908F907F906F905F904F90CA
S1130A703F902F900895FC0182819927582F442795
S1130A8081819927482B592BCA01892F992786954B
S1130A908695837090708230910559F0833091056A
S1130AA059F0892B19F420E030E008C02CE93FEF1D
S1130AB005C022E030E002C028E030E0CA0184E052
S1130AC0989F812D992711248230910559F0833004
S1130AD0910559F0892B19F480E090E008C08CE965
S1130AE09FEF05C082E090E002C088E090E0280F0C
S1130AF0391F2A5F3F4FCF01820F931F0895282F7C
S1130B009FB7F894662349F0E82FFF27E051FB4F85
S1130B108081882311F021E006C0E22FFF27E051F5
S1130B20FB4F608320E0892F99278FBF822F99275D
S1130B300895E82F8FB7F894282F332790E0FF27E4
S1130B40E051FB4F8081861709F491E02FBF892F74
S1130B5099270895882311F06E9A08956E98089540
S1130B60882311F06F9A08956F98089580E00E9489
S1130B70AA05BA9ABB98B99AB89A6C9A80E00E946E
S1130B80B0056B986A9881E00E94AA05709A8DB1AD
S1130B908C7F8DB908950F931F93CF93DF93182FF4
S1130BA08FB7F894C82FDD270C2F61E080E00E94F6
S1130BB07F05882321F0CFBF85E090E024C0809199
S1130BC016018823A1F480913F01823081F409C089
S1130BD082E080933F01109216010E94B605B89AF4
S1130BE0C0981093130180E00FBF99270CC0809127
S1130BF03F01882369F38FB7F89499271092F00482
S1130C008FBF81E0F1CFDF91CF911F910F910895B4
S1130C101F93182F81E00E94AA051FB9779BFECF6E
S1130C208FB199271F9108958F929F92AF92BF928F
S1130C30CF92DF92EF92FF920F931F93CF93DF93A4
S1130C408FB7F8949927C090BC0AD090BD0A8090C1
S1130C50D3049090D404C091D803D091D9032091A7
S1130C60770130917801EAE0AE2EB12CAC0EBD1EB6
S1130C702A153B0508F459018FBF7401EC0EFD1EC3
S1130C8086010C0F1D1F14C0C114D10419F0F80102
S1130C90808101C080E00E9408068114910411F053
S1130CA0F701808321960894E11CF11C0F5F1F4F0C
S1130CB0C5010197C817D90738F381E00E94B00530
S1130CC09FB7F894C114D10431F0CC0EDD1EF601A7
S1130CD080818FB901C01FB8D093D903C093D803C2
S1130CE0892F99278FBF80E090E0DF91CF911F91EA
S1130CF00F91FF90EF90DF90CF90BF90AF909F90B7
S1130D008F9008952FB7F894332750937801409328
S1130D1077019093BD0A8093BC0A7093D4046093C6
S1130D20D3041092D9031092D8032FBF452B29F076
S1130D308FB10E9414069927089589E00E942B021E
S1130D4080E090E008958FB7F89499271092F20408
S1130D508FBF0895E0EDF1E06927660FF11DE60FFE
S1130D60F11DC895982F802D3196C895902508952A
S1130D701F93CF93DF93142FEB0104C069910E945A
S1130D80AA0611501123D1F7DF91CF911F91089535
S1130D90462FBC0180E090E00E94B8060895982F89
S1130DA0969596959695E7E2F4E0E90FF11D877024
S1130DB021E030E002C0220F331F8A95E2F78081E0
S1130DC08223992708959C01FB0109C0D9010E943F
S1130DD06746802D8193415050402F5F3F4F41150E
S1130DE05105A1F780E090E008959C01FB010BC040
S1130DF08191B9016F5F7F4FD901082E0E946F4620
S1130E00415050409B014115510591F7E199FECFA6
S1130E1080E090E008958091760A882319F02FE10C
S1130E2070E002C078E02EE1622FEFB7F894809171
S1130E3077028E7F8093770287B1982F9F71829576
S1130E4086958695837019F080E090E012C0822F19
S1130E508850863118F081E090E00BC040E050E00B
S1130E603327892F99272817390711F441E050E0D7
S1130E70CA01982F9170990F809177028178262F5B
S1130E802F71422F440F440F892B842B80937702B8
S1130E90332727B9783059F58091730A9091740AF1
S1130EA021E08638920718F087E090E01FC0833C69
S1130EB0910518F086E090E019C08136910518F08C
S1130EC085E090E013C08033910518F084E090E051
S1130ED00DC08831910518F083E090E007C00C97AD
S1130EE018F082E090E002C080E090E0782F777004
S1130EF0887D872B886D992786B98E2F99278FBF78
S1130F0008952FB7F8943327809114038093370101
S1130F1083E0809365012FBF80913701882339F4E2
S1130F2081E080934B031092760A0E940B07089588
S1130F30FC016683672F772765830895CF93DF933A
S1130F40582FDB01823018F081E090E038C0C82FC0
S1130F50DD27CC0FDD1FC75CD54F88819981892B94
S1130F6019F085E090E02BC0798368839B012B5FA7
S1130F703F4FF901448380913801823018F480E0B6
S1130F8090E01DC0F9018681FB0165817727762FEA
S1130F906627F90121813327622B732B5093380183
S1130FA0242FAD010E947F029927282F882329F03E
S1130FB082E08093380119821882822F9927DF9169
S1130FC0CF910895CF92DF92EF92FF920F931F93E8
S1130FD07A018B018093A6033AE9C32E33E0D32E22
S1130FE06FEF7FEFC6010E94980783E58093A50306
S1130FF04E2DB60180E00E949E071F910F91FF9035
S1131000EF90DF90CF900895CF92EF92FF920F93DD
S11310101F9380916801833079F4275A334061F437
S1131020109268010894E11CF11C011D111DB80106
S1131030A7018C2D0E94E2071F910F91FF90EF9062
S1131040CF9008950F931F9380934E0202E412E011
S11310506FEF7FEFC8010E94980784E580934D02EB
S113106041E0B80181E00E949E071F910F9108950D
S11310704FB7F8945527FC0153E0F695E7955A9538
S1131080E1F7E952FB4F8770907021E030E002C035
S1131090220F331F8A95E2F78081822B80834FBF12
S11310A00895E82F9A01AB01BB27A52F942F832F16
S11310B0BC01E13049F0E13078F0E23041F0E33056
S11310C049F060E078E008C060507F4F05C0605090
S11310D07E4F02C060507D4F88279927982F872F15
S11310E0762F6627307044275527620F731F841F9D
S11310F0951F08959FB7F894292F3327422F909175
S11311003601981741F480915F01823021F42FBF9A
S113111081E090E008954FBF80E090E0089582E17F
S11311200E947A0899270895CF93DF93982F8FB759
S1131130F894C82FDD272C2F80915F01882361F458
S113114081E080935F01909336018DE10E942B0230
S1131150CFBF80E090E021C0E92FFF27E751FD4F8A
S113116080818F3F89F4E0913501E91789F40CC03F
S11311709093340104C0FF27E751FD4F908390936F
S1131180350180E090E002C085E090E02FBF05C00B
S1131190809134018F3F79F7EBCFDF91CF910895A0
S11311A081E10E947A08882321F082E20E942B02C6
S11311B0089581E10E94940808958FB7F89460918E
S11311C01804709119042CB53DB506B602FE04C08E
S11311D06F5F7F4F2CB53DB599278FBF882799271F
S11311E0CB017727662744275527622B732B842B43
S11311F0952B0895EF92FF920F931F930E94DD08A1
S11312007B018C012091390330913A0340913B03D7
S113121050913C038091310390913203A0913303A8
S1131220B0913403820F931FA41FB51FE216F30677
S11312300407150730F082179307A407B50758F081
S113124005C082179307A407B507E0F5E816F90669
S11312500A071B07B8F59C01AD012E193F09400B85
S1131260510B213060E8360760E0460760E056071E
S113127068F180E090E8A0E0B0E0E80EF91E0A1FF3
S11312801B1FE0923903F0923A0300933B0310933F
S11312903C0380E090E8AFEFBFEFE80EF91E0A1FB1
S11312A01B1F20503048404050402093310330935E
S11312B03203409333035093340320E030E840E09A
S11312C050E014C020E030E040E050E08093390367
S11312D090933A03A0933B03B0933C0310923103E1
S11312E0109232031092330310923403A901B70110
S11312F02CB53DB5C9018E199F090396841795072E
S113130020F0B9016D5F7F4F02C0640F751F611536
S1131310710511F461E070E0615070407BBD6ABDFD
S113132080E186BF87B7806187BF1F910F91FF90CF
S1131330EF9008950F931F930FB7F89411276093BC
S1131340390370933A0380933B0390933C032093B7
S113135031033093320340933303509334030E9498
S1131360FA080FBF1F910F910895CF92EF92FF9249
S113137080916801843089F410926801CC2031F4A2
S1131380E092A8038F2D99278093A70343E050E0B0
S113139060E070E08C2D0E94E207FF90EF90CF9008
S11313A00895862F90916801913011F0963041F4A0
S11313B01092680141E050E060E070E00E94E207B2
S11313C00895813049F0813078F0823041F08330E3
S11313D049F060E070E008C060507E4F05C0605086
S11313E07D4F02C060507F4FCB010895982F4FB7B7
S11313F0F894552722B3277D22BB80E097FD939A6A
S1131400959A8299806822BB96FD939A959A8299BF
S1131410806422BB95FD939A959A8299806222BB3F
S113142094FD939A959A8299806122BB93FD939A35
S1131430959A8299886022BB92FD939A959A829993
S1131440846022BB91FD939A959A8299826022BB13
S113145090FD939A959A829981604FBF9927089538
S11314601F93182F809167018823E1F4623041F0C3
S1131470633041F0613011F081E007C080E103C0C6
S11314808EE001C08FE00E94940890E0882309F464
S113149091E090936701992329F01093080A80E062
S11314A090E002C081E090E01F9108958FB7F89416
S11314B099272BB331E023272BBB8FBF0895982F97
S11314C08FB7F894282F332780915F01882349F43C
S11314D082E080935F01909336012FBF80E090E01B
S11314E008952FBF81E090E008958091E1048A304F
S11314F021F480910A03843021F081E08093460135
S1131500089581E10E942B021092460108952FB79D
S1131510F89433278CB95E9A2FBF0895FC016115A6
S1131520710519F481E090E0089580914103909150
S11315304203892B19F085E090E008957093070A1F
S11315406093060AF0934203E093410310920C0364
S113155010920B0381E080930D035E9A569A80816A
S113156021E030E030930C0320930B030E94870AA0
S113157080E090E008958FB7F8949927209157015F
S11315802E7F209357012EE7209302028FBF61E044
S113159070E082E092E00E948E0A99270895DF921B
S11315A0EF92FF920F931F938FB7F894282F33274E
S11315B0D22E91B782B746B7981711F041FF02C0F7
S11315C02FBF6AC08091CE038823E1F10E946C048E
S11315D0E090EC04F090ED040091EE041091EF041F
S11315E02091D0013091D1014091D2015091D30189
S11315F06E197F09800B910B621773078407950797
S113160020F01092CE0371E01EC02E0D3F1D401F2E
S1131610511F8091B0019091B101A091B201B0919C
S1131620B301281B390B4A0B5B0B273E31054105DF
S1131630510540F4822F223010F070E005C070E0B4
S113164082E002C070E086EE682F615000B601FCB3
S1131650FDCF82B7681709F46F5F2091B001309114
S1131660B1014091B2015091B301DA01C90101966F
S1131670A11DB11D860F911DA11DB11D82179307D8
S1131680A407B50710F4622F609561BFDFBE77230E
S113169019F08CE00E942B021F910F91FF90EF90A4
S11316A0DF900895AFB7F894BB27E1E0E093CE0351
S11316B06093EC047093ED048093EE049093EF0434
S11316C02093D0013093D1014093D2015093D301A0
S11316D0AFBF0E94CF0A089580E88093D40110928E
S11316E009031092770A1092710A1092CE0208959B
S11316F0CF93DF93FC0115A6DC019E96ED011B82BE
S11317001A82198280E886A7DF91CF910895CF923B
S1131710DF92EF92FF920F931F93CF93DF938C018D
S1131720F62E6A01E22E8FB7F894C82FDD2760E009
S113173080E00E949905882321F0CFBF80E090E0EB
S11317401EC0CFBF0F0D111D802F80680E94080698
S1131750F82E16950795802F807C0E9408060E2D82
S11317600AC0EE2DFF27E01BF109EC0DFD1D808161
S11317700E94080601500023A1F78F2D9927DF91BD
S1131780CF911F910F91FF90EF90DF90CF9008952C
S113179097B79F7D97BF90E296BF882319F08EB5C7
S11317A0806402C08EB58F7B8EBD87B7806287BF91
S11317B080E090E00895AF92BF92CF92DF92EF92D3
S11317C0FF920F931F93CF93DF93CDB7DEB7289784
S11317D00FB6F894DEBF0FBECDBF20E070E0E091FD
S11317E00D01F0910E0132E14DE65CE46FE480916D
S11317F00E019E2F28960FB6F894DEBF0FBECDBF04
S1131800DF91CF911F910F91FF90EF90DF90CF90D8
S1131810BF90AF9008958FB7F894282F3327922F55
S11318208091E1048A3041F080910A03843021F0F0
S11318302FBF89E090E008959FBF80E10E942B02B2
S113184080E090E008951F920F920FB60F9211243A
S11318508F9383B783BF00B600FCFDCF8F910F90A9
S11318600FBE0F901F90189578941F920F920FB689
S11318700F9211240F900FBE0F901F90189578941B
S11318801F920F920FB60F9211240F900FBE0F905C
S11318901F90189578941F920F920FB60F921124EF
S11318A02F933F938F939F932FB7F894332780916F
S11318B018049091190401969093190480931804C4
S11318C02FBF9F918F913F912F910F900FBE0F903B
S11318D01F9018951F920F920FB60F9211240F901C
S11318E00FBE0F901F9018951F920F920FB60F9274
S11318F011240F900FBE0F901F9018951F920F92F6
S11319000FB60F9211240F900FBE0F901F901895D1
S11319101F920F920FB60F9211240F900FBE0F90CB
S11319201F9018951F920F920FB60F9211240F90CB
S11319300FBE0F901F9018951F920F920FB60F9223
S113194011240F900FBE0F901F9018951F920F92A5
S11319500FB60F9211240F900FBE0F901F90189581
S1131960982F80915201882389F5992379F531E0E4
S11319703093520180911D018093530120914701BE
S1131980822F81708093D50180912201909123014F
S1131990909355018093540180914801809356019E
S11319A032273170267EE32FFF27EE0FFF1FE25E02
S11319B0FE4F808191819093230180932201232BF8
S11319C02093470184E10E942B02089580914701EE
S11319D080FF02C08B7F01C08D7F809347010895F3
S11319E00F931F93082F162F80910A038130D9F08B
S11319F0813038F0823009F44AC0833009F028C1BC
S1131A0059C0002309F458C11092000A1092FF092A
S1131A101092EA041092140A10920F0310921D04FB
S1131A2010921C0439C1002309F046C180911C04A2
S1131A3090911D040E94AA0690931D0480931C0497
S1131A4082E080930A031093140A143409F000C14D
S1131A5025C18695869503C080914701869581703E
S1131A6009F0F6C080914701992311F0846001C008
S1131A7082608093470180914701877E88608093CC
S1131A804701109248018FEF80931D0115C1002377
S1131A9009F0DEC060930F0380911C0490911D0433
S1131AA00E94AA0690931D0480931C0483E08093F3
S1131AB00A0302C18091EA048F3F09F4C9C00023DC
S1131AC009F461C0823008F4C3C0E091FF09EE2339
S1131AD009F4EBC04E2F4150E42FFF27E150F64F9D
S1131AE082819927382F2227442311F4E2E002C08F
S1131AF0E42FE150FF27E150F64F82819927282BEC
S1131B00392B80911C0490911D042817390709F082
S1131B109FC080E00E94B00C30910F038091CF03EE
S1131B202091D003982F9F5F963008F090E0921791
S1131B3071F0E82FFF27E153FC4F32838F5F8093CE
S1131B40CF03863010F01092CF030E946B021092E4
S1131B50000A1092FF0994E090930A031092EA0499
S1131B601092140A10920F0310921D0410921C0478
S1131B70809157018D7F809357018091460188237E
S1131B8009F49AC084C0823008F44EC0E091000A7F
S1131B90FF27E150F64F8281482F5527342F20919B
S1131BA04701822F86958695869583709927813083
S1131BB0910519F00297F9F40EC0277E2061209355
S1131BC04701442311F485E001C080E0809348017B
S1131BD030931D0110C080914801843360F4E0917A
S1131BE02201F0912301E80FF11D40838091480107
S1131BF08F5F809348018091000AE82FFF27E1500E
S1131C00F64F62818F5F8093000A833010F0109248
S1131C10000A772780911C0490911D040E94AA0653
S1131C2090931D0480931C048091FF09E82FFF27E3
S1131C30E150F64F12838F5F8093FF09833010F0D9
S1131C401092FF098091EA048F5F8093EA0434C004
S1131C501092000A1092FF0914E010930A031092E4
S1131C60EA041092140A10920F0310921D041092A9
S1131C701C04809157018D7F8093570181E00E945D
S1131C80B00C80914601882329F010930A030E9426
S1131C90750A12C0002381F081E009CF80914701C9
S1131CA0982F917080FDD5CED7CE8091030A9927C5
S1131CB0382F222742E01CCF1F910F9108951F92C5
S1131CC00F920FB60F9211242F933F934F935F936C
S1131CD06F937F938F939F93AF93BF93EF93FF93F0
S1131CE05F9B3DC06CB1E0911E04F0911F043097DE
S1131CF0F9F08091BE0A9091BF0AE80FF91F608342
S1131D0001969093BF0A8093BE0A2091E50A309110
S1131D10E60A8217930718F110921F0410921E040A
S1131D208091D8048330D9F057981092D80417C002
S1131D306E3719F460E081E010C0809157016D376F
S1131D4021F48260809357010AC081FF05C08D7F12
S1131D508093570180E2682780E00E94F00CFF9195
S1131D60EF91BF91AF919F918F917F916F915F910F
S1131D704F913F912F910F900FBE0F901F90189588
S1131D80982F8D57823068F4809157018160809339
S1131D90570180E289278093E9048DE7809302024A
S1131DA002C09093020261E070E082E092E00E943F
S1131DB08E0A9927089578941F920F920FB60F9266
S1131DC01124FF920F931F932F933F934F935F938D
S1131DD06F937F938F939F93AF93BF93CF93DF932F
S1131DE0EF93FF9320910B0330910C038091060A2B
S1131DF09091070A2817390780F4E0914103F09184
S1131E004203E20FF31F80812F5F3F4F30930C0397
S1131E1020930B030E94870ACDC0109242031092B4
S1131E20410310920D035698FFB6F8948091570120
S1131E3080FF0EC08E7F809357018091E9048093C8
S1131E40020261E070E082E092E00E948E0AAFC07C
S1131E508091E104843009F48CC0853040F48230F0
S1131E6021F18330B8F5813009F09CC00DC0863073
S1131E7009F48DC0863008F483C0873009F48EC01D
S1131E80883009F08FC091C0809138030E94C00E41
S1131E90082F83E08093E104609138038091E30A82
S1131EA09091E40A0E94AA0610C08091750A0E94CB
S1131EB0C00E082F83E08093E1046091750A80913D
S1131EC0E30A9091E40A0E94AA069093E40A80939C
S1131ED0E30A66C0E0912304FF27EE0FFF1FE85BCF
S1131EE0FC4F80810E94C00E082F10912304C12F43
S1131EF0DD27FE01EE0FFF1FE85BFC4F6081809140
S1131F00E30A9091E40A0E94AA069093E40A80935B
S1131F10E30A209130032F5F20933003113039F509
S1131F2080914E01E0914901F0914A01E80FF11DC1
S1131F30E0818F5F80934E0190914D01981730F4AA
S1131F4082E08093490340E050E002C04E2F5527C1
S1131F50DE01AA0FBB1FFD01E95BFC4F80818230CB
S1131F6031F02F3F21F0A85BBC4F4C9319C084E0A3
S1131F7012C08091E30A0E94C00E082F85E00BC0B6
S1131F808091E40A0E94C00E082F86E004C00E94DB
S1131F90BB0A082F87E08093E10402C088E003C0F5
S1131FA0002329F089E08093E1040E946B028F2DC5
S1131FB099278FBFFF91EF91DF91CF91BF91AF919F
S1131FC09F918F917F916F915F914F913F912F914D
S1131FD01F910F91FF900F900FBE0F901F901895B7
S1131FE01F920F920FB60F9211248F9380919B0032
S1131FF087FF02C080919C008F910F900FBE0F90BD
S11320001F90189578941F920F920FB60F92112477
S11320100F900FBE0F901F90189578941F920F92F7
S11320200FB60F9211240F900FBE0F901F901895AA
S113203078941F920F920FB60F9211240F900FBE37
S11320400F901F90189578941F920F920FB60F92CD
S113205011240F900FBE0F901F90189578941F9223
S11320600F920FB60F9211248F939F93809180004B
S1132070909181009F918F910F900FBE0F901F90B0
S1132080189578941F920F920FB60F9211242F93E4
S11320903F938F939F932FB7F894332780912C030A
S11320A090912D03019690932D0380932C032FBFC1
S11320B09F918F913F912F910F900FBE0F901F9082
S11320C018951F920F920FB60F9211242F933F93DE
S11320D04F935F936F937F938F939F93AF93BF932C
S11320E0EF93FF9344B155B178948FB7F89499273F
S11320F020917702322F3695317021708FBF2223C1
S1132100D9F4339880914B03813021F0823009F067
S113211039C00AC0332351F05093E0044093DF04E4
S113212081E20E942B022EC0332319F40E940B0774
S113213029C010924B0326C08FB7F89499278FBFFC
S11321402FB7F894332786B1582F5770482F407211
S1132150987D942B952B8074977B982B90619F7717
S1132160892F992786B9887D842B852B8773806175
S1132170992786B9887D842B852B877B806999274D
S113218086B92FBFFF91EF91BF91AF919F918F912E
S11321907F916F915F914F913F912F910F900FBE5F
S11321A00F901F901895CF93DF93CDB7DEB72C9780
S11321B00FB6F894DEBF0FBECDBF8FB7F894282FAB
S11321C0AE014F5F5F4FDA01E3E1F5E088E0019093
S11321D00D928150E1F7809110039091110389874A
S11321E0892F99278A8780913D0390913E038B879D
S11321F0892F99278C872FBF2CE060E080E691E03F
S11322000E94870B2C960FB6F894DEBF0FBECDBF8D
S1132210DF91CF910895EF92FF920F931F9379016D
S11322208A016A3018F04AE050E002C0462F552770
S1132230BC018EEF94E00E94AC45E0926001F09204
S1132240610100936201109363011F910F91FF904C
S1132250EF9008951F920F920FB60F9211242F93AF
S11322603F934F935F936F937F938F939F93AF931A
S1132270BF93EF93FF9383B783BF00B600FCFDCFFA
S113228081B799270196AA27BB272091B0013091E5
S1132290B1014091B2015091B301280F391F4A1F77
S11322A05B1F2093B0013093B1014093B20150936E
S11322B0B30178940E94CF0AFF91EF91BF91AF913F
S11322C09F918F917F916F915F914F913F912F914A
S11322D00F900FBE0F901F901895BF92CF92DF9270
S11322E0EF92FF920F931F93B82E670178018091AC
S11322F05C01882319F085E090E034C0EB2DFF27C2
S1132300E931F105B8F4EA5BFF4FEE0FFF1F0590CA
S1132310F491E02D099484E00E94E0039927282F8A
S1132320882349F481E080935C01B092C10A80E083
S113233090E018C021E0822F992714C089019A01E6
S1132340AB0160E0E8CF89019A01AB0163E0E3CF20
S113235089019A01AB0161E0DECF89019A01AB01E9
S113236062E0D9CF1F910F91FF90EF90DF90CF9053
S1132370BF900895EF92FF920F931F93813051F015
S1132380813030F0823041F0833041F081E009C087
S113239086E005C089E003C087E001C088E00E94B0
S11323A06D1199271F910F91FF90EF900895BF929F
S11323B0CF92DF92EF92FF920F931F93B82ED70123
S11323C080915C01882319F085E090E03CC0EB2DFE
S11323D0FF27E931F105B8F4E15AFF4FEE0FFF1F73
S11323E00590F491E02D099485E00E94E00399277B
S11323F0282F882349F481E080935C01B092C10ABC
S113240080E090E020C021E0822F99271CC0680161
S113241079018D019A01AB0160E0E6CF6801790191
S11324208D019A01AB0163E0DFCF680179018D0171
S11324309A01AB0161E0D8CF680179018D019A015D
S1132440AB0162E0D1CF1F910F91FF90EF90DF902D
S1132450CF90BF900895BF92CF92DF92EF92FF92F8
S11324600F931F93B82E6701780180915C01882334
S113247019F085E090E034C0EB2DFF27E931F10538
S1132480B8F4E858FF4FEE0FFF1F0590F491E02DCC
S1132490099481E00E94E0039927282F882349F4B6
S11324A081E080935C01B092C10A80E090E018C0A2
S11324B021E0822F992714C089019A01AB0160E0C1
S11324C0E8CF89019A01AB0163E0E3CF89019A0166
S11324D0AB0161E0DECF89019A01AB0162E0D9CFA3
S11324E01F910F91FF90EF90DF90CF90BF900895D0
S11324F0AF92BF92CF92DF92EF92FF920F931F930E
S113250080910E0399272CE130E0829FA001839FE4
S1132510500D929F500D1124FA01E957F54F808117
S1132520A82EBB24CC24DD240AE0AA0CBB1CCC1CA2
S1132530DD1C0A95D1F7FA01E857F54F808126E1B1
S1132540829FC0011124AA27BB27A80EB91ECA1E48
S1132550DB1E9A012757354F80915A01823079F05A
S11325608330B1F0813011F081E01CC016E1E12E1E
S1132570F12C012D112DB601A50185E011C0B6E1A4
S1132580EB2EF12C012D112DB601A50183E008C01D
S1132590A6E1EA2EF12C012D112DB601A50184E04E
S11325A00E942B12882311F0109200021F910F91A8
S11325B0FF90EF90DF90CF90BF90AF9008950F936E
S11325C01F93CF93DF93182F8FB7F894282F3327B7
S11325D0022F80916501882359F581E0809365017C
S11325E0109314032FBF8FB7F8949927379A8FBF8E
S11325F08FB7F894C82FDD279C2F80913701813045
S1132600A9F480916501813021F480E20E942B02BB
S113261009C0823059F4809114038093370183E018
S113262080936501CFBF80E090E025C09FBFFBCFC2
S113263080911403811711F42FBFF5CF812F0E94CD
S1132640CF06882319F085E090E014C0E12FE695C9
S1132650E695E695FF27E95DFB4F177081E090E072
S113266002C0880F991F1A95E2F72081282B208336
S113267080E090E00FBFDF91CF911F910F910895FB
S11326801F93982F8FB7F894182F80915F01823091
S113269099F580913601891779F58091340120E00C
S11326A030E08F3F11F421E030E0232BE1F48F3F41
S11326B019F42FEF30E00EC0282F3327F901E7512A
S11326C0FD4F8081809334018F3F11F48093350155
S11326D08FEF80832093360181E080935F018DE149
S11326E00E942B0205C08FEF8093360110925F0188
S11326F01FBF80E090E003C01FBF81E090E01F9106
S113270008958BE10E944013992708951092670160
S1132710823031F0833041F0813049F480E101C0EE
S11327208EE00E94401308958FE00E9440130895A4
S11327301F93982F8FB7F894182F80915E018330E0
S1132740B1F580913301891791F58091310120E031
S113275030E08F3F11F421E030E0232BF9F48F3F78
S113276019F42FEF30E00EC0282F3327F901E55874
S1132770F54F8081809331018F3F11F480933201B2
S11327808FEF808320938B078FEF8093330181E059
S113279080935E018CE10E942B0205C084E080934B
S11327A0330110925E011FBF80E090E003C01FBFA1
S11327B081E090E01F9108950F931F93182F0FB796
S11327C0F89461E080E00E947F05882341F510932E
S11327D0130180911601882379F580913F0182309D
S11327E059F588E006C081E080933F0110921601FC
S11327F08AE00E942B022AC0809135038F3F31F575
S1132800E0911501EE2311F11CC01092140104C0D3
S1132810FF27EB5CFC4F10821092150117C081E07A
S113282090E002C0880F991F1A95E2F720913E01AB
S1132830282B20933E010AC080913F018823E1F6B2
S1132840D2CF809114018F3F19F7DFCF802F9927C2
S11328508FBF80E090E01F910F9108951F938FB771
S1132860F894282F3327122F8091C40A882321F04B
S11328702FBF81E090E013C081E08093C40A80916F
S11328803B0190913C01049721F481E00E94DC1308
S113289003C086E00E942B021FBF80E090E01F91DE
S11328A008951F9383E00E94CB059927182F88234E
S11328B019F083E00E94DC13812F99271F9108955A
S11328C00F931F930FB7F894112782E080933F0171
S11328D00E94B6050FBF80911601882329F4B89A87
S11328E0C09888E00E942B021F910F910895442301
S11328F019F00E94560A20C03FB7F8942091E70AC5
S1132900E22FFF27EE0FFF1FEE57FC4F80819181CE
S11329106817790771F4822F8F5F8093E70A8C30F0
S113292010F01092E70A8091CD01882311F01092E3
S1132930CD01832F99278FBF81E00E942B02089538
S113294010926601809115039927833019F0843021
S1132950D1F406C081E0809366010E94D0080895F6
S113296040E050E060E070E080911A030E9451085A
S11329706093C2017093C3018093C4019093C50115
S113298080E00E94DF120895CF92DF92EF92FF92CF
S11329900F931F9380935D0160930B0AC901880F05
S11329A0892F881F990B919580930C0A220F812FF0
S11329B09927282B20930D0A00930E0AD092D6044F
S11329C0C092D504F0923703E092360340932E036D
S11329D08BE10E942B021F910F91FF90EF90DF90EB
S11329E0CF900895FF920F931F93CF93DF93EC0141
S11329F0FFB6F89480912903882321F58091CE01B4
S1132A009927FC01EE0FFF1FE053FD4F0081118158
S1132A10D183C08301966CE070E00E94FB458093F3
S1132A20CE012091E204281719F481E08093290350
S1132A308091780A882349F40E942B0281E08093D4
S1132A40780A03C00E94560A8E018F2D99278FBFE2
S1132A50C801DF91CF911F910F91FF9008950F93BB
S1132A601F93CF93DF938FB7F894282F3327422FE8
S1132A709091CE018091E204981741F4809129034A
S1132A80882321F41092780A2FBF49C04FBFE091E8
S1132A90E204FF27EE0FFF1FE053FD4F0190F0818A
S1132AA0E02D20812D5033272093200483856781D6
S1132AB006814185A0855527542F4427BB274A2BDF
S1132AC05B2BA481359697E0EF0119929A95E9F76B
S1132AD035974087452F55274783A287E091E20425
S1132AE0FF27EE0FFF1FE053FD4F408151817727F1
S1132AF0762F66271127602B712B0E947F02882373
S1132B0049F48FB7F89499272BB332E023272BBBD2
S1132B108FBF05C00E94560A80E00E942B02DF91FD
S1132B20CF911F910F9108958531C1F0863138F40A
S1132B30843061F0853051F08330D9F407C0873197
S1132B4089F0873168F08831A1F410C080912401A4
S1132B50813079F485E10E942B02089580E003C05E
S1132B6082E001C083E00E94D109089581E00E94BF
S1132B70D1090895AF92BF92CF92DF92EF92FF9264
S1132B800F931F93282F33278BE090E0289FF001A9
S1132B90299FF00D389FF00D1124E559FE4F8281D5
S1132BA09381A481B5810097A105B10569F0808165
S1132BB09181880F991F918380838150944020F0E4
S1132BC080E094E0918380838BE090E0289F500123
S1132BD0299FB00C389FB00C11248BE691E0A80E0D
S1132BE0B91EF50186819781A085B185828393837F
S1132BF0A483B583C080D180EE24FF2469E0CC0C8B
S1132C00DD1CEE1CFF1C6A95D1F70E94B204DC01A6
S1132C10CB01F50100811181B801762F6627770F6A
S1132C200E94E745AA27BB278C0D9D1DAE1DBF1D25
S1132C30222733274AE0000F111F221F331F4A9512
S1132C40D1F7081B190B2A0B3B0B0683178320872C
S1132C5031872281338144815581280F391F4A1FCE
S1132C605B1F22833383448355831F910F91FF900D
S1132C70EF90DF90CF90BF90AF900895CF92DF9206
S1132C80EF92FF920F931F93CFB6F894DD240E9426
S1132C90B204DC01CB0166E470E00E94E745EBE09E
S1132CA0EE2EF12CE80EF91EF092C30AE092C20A4D
S1132CB00E94DD0800271127A80197010E949A09A4
S1132CC0CFBE1F910F91FF90EF90DF90CF900895AA
S1132CD01F93CF93DF93182F8FB7F894C82FDD2756
S1132CE060E080E00E949905882321F0CFBF80E056
S1132CF090E005C0CFBF812F0E9408069927DF917D
S1132D00CF911F910895EF92FF920F931F93CF934A
S1132D10DF93182F7B01042F8FB7F894C82FDD277A
S1132D2060E080E00E949905882321F0CFBF80E015
S1132D3090E014C0CFBF1064812F9927909344036F
S1132D40809343030E940806182F402F5527B7018C
S1132D5080E090E00E948206812F9927DF91CF9135
S1132D601F910F91FF90EF900895C09860916901B1
S1132D7070916A0141E08FE30E948316089582E016
S1132D8090E09093FF018093FE0181E0809309031A
S1132D9020E030E080911301843011F421E030E030
S1132DA0232B29F484E00E94CB05882319F40E9484
S1132DB0B516089584E00E94DC1308951F920F92C3
S1132DC00FB60F9211242F933F934F935F936F93FA
S1132DD07F938F939F93AF93BF93EF93FF938091D0
S1132DE0FE019091FF01019749F482E090E09093F5
S1132DF0FF018093FE010E94BF1605C08091CE02A0
S1132E008F5F8093CE02FF91EF91BF91AF919F911D
S1132E108F917F916F915F914F913F912F910F907F
S1132E200FBE0F901F9018951F9380913E01882329
S1132E3009F048C0109113011F3F09F043C060E03E
S1132E400E9499058823F1F181E080938D07809198
S1132E50D8018823D1F110928D0785E090E03BC022
S1132E6080913F018230A9F5C09A8091140120E03D
S1132E7030E08F3F11F421E030E0232BD9F48F3F71
S1132E8019F42FEF30E00DC0282F3327F901EB5C44
S1132E90FC4F8081809314018F3F11F480931501BE
S1132EA010832093160181E080933F018AE00E9401
S1132EB02B0204C01093160110923F0180E00E947F
S1132EC0AA0507C081E090E006C08091160188231E
S1132ED039F280E090E01F9108951F93CF93DF9320
S1132EE09FB7F894C92FDD271C2F909113019817D1
S1132EF021F0CFBF81E090E03AC08FEF80931301BF
S1132F0030913E013323F1F48FB7F894992710924E
S1132F10F0048FBF0E941417CFBF11C02093130178
S1132F2081E090E002C0880F991F4A95E2F78095EE
S1132F30382330933E0188E00E942B021FBF80E0BB
S1132F4090E015C080E065E0E32FFF270E94DB4599
S1132F50292F492F5527CF01042E02C09595879517
S1132F600A94E2F780FDDACF822F8F5FEFCFDF91F3
S1132F70CF911F910895CF93DF93C0988FB7F894A2
S1132F80C82FDD2760E080E00E949905882311F0B6
S1132F90CFBF0AC0CFBF83E50E94080680E00E942D
S1132FA0080680E00E940806C09A82E00E946D171D
S1132FB0DF91CF9108951F93CF93DF938FB7F89448
S1132FC0C82FDD271C2F8091FE019091FF01892BD2
S1132FD029F484E00E946D17CFBF1EC0109209032C
S1132FE08091CE02882311F0B79904C00E9908C0CD
S1132FF0882319F081508093CE020E94BF160BC023
S113300081E090E09093FF018093FE011092CE0244
S113301084E00E946D171FBFDF91CF911F91089527
S11330200E946C0BC09AC09888E00E94681688E0E1
S11330300E946816C09A84E00E946D170E94DB17F4
S11330400895FF920F931F93CF93DF93F82E8B0174
S11330508FB7F894C82FDD2760E080E00E949905BF
S1133060882321F0CFBF80E090E00CC0CFBF8F2D2C
S11330700E940806812F99270E940806802F0E942B
S113308008069927DF91CF911F910F91FF90089522
S11330901F931FB7F8948091CD02882319F460E040
S11330A070E009C060E08091BB0A882309F461E004
S11330B081E06827772780911F03882319F480E033
S11330C090E00AC090E080911205882309F491E011
S11330D081E09827892F9927762F6627770F770F16
S11330E0770FA4E0880F991FAA95E1F7826E926288
S11330F0682B792B81E10E942118812F99278FBF9A
S11331001F9108958FB7F894992760918C078FBF0A
S113311085E0689FB0011124625D7E4F706488E190
S11331200E9421180895C09886E00E9468160E94A3
S113313082180E9448180E94D310C09AC09883E055
S11331400E946816C09A81E00E946D1786E00E9472
S11331502B020895CF93DF93C0988FB7F894C82FAC
S1133160DD2780913B0190913C010297A1F583E01A
S113317090E090933C0180933B0168E170E08DE125
S11331800E94211881E080933F0310923D0180B397
S1133190992726E0969587952A95E1F78170907096
S11331A08093400387E00E942B0281E00E9468160E
S11331B06FE772E08CE10E9421180E9482180E943D
S11331C0481866E57AE287E10E9421186FEF70E8FB
S11331D085E10E942118CFBFDF91CF910895EF922E
S11331E0FF921F93CF93DF93E0902103F09022038B
S11331F0F70182A59927182F882309F41FE1C098A5
S113320080917602811749F0612F77276F71707072
S1133210606E706885E10E94211810937602F701B0
S113322010818FB7F894C82FDD2760E080E00E94FA
S11332309905882311F0CFBF12C0CFBF8EE390E071
S113324090934403809343038EE30E940806115035
S1133250412F552760E070E0C7010E948206DF918C
S1133260CF911F91FF90EF9008950F931F93CF93E9
S1133270DF93EC010FB7F89411270E943B05FC0182
S11332808FE380830FBF1092810A1092800A61E05D
S113329082E00E947F05882319F085E090E072C0E7
S11332A080918E078F5F80938E0781508B838FB7B9
S11332B0F894082F112762E081E00E949905882381
S11332C029F40FBF0E94A30681E05BC08FB7F89476
S11332D0992724E02093F1048FBFD0934F03C09328
S11332E04E030FBFFE013196818129819927982FC2
S11332F088273327822B932B80729C7C8983892F88
S1133300992781832981982F882733272164822B49
S1133310932B8983892F992781831CA618A619A624
S113332019AA18AA1FA680E88EA761E06093F40486
S113333040914E0350914F038FB7F894282F3327B1
S113334080914001909141018830910511F00197DD
S113335011F02FBF15C082E090E09093410180935B
S113336040016093E20A5093220340932103109298
S1133370AD012FBF0E945114882311F40E94EF184D
S113338080E09927DF91CF911F910F910895CF93FA
S1133390DF93DA01422F2D3118F082E090E05EC015
S11333A0ED018B876E83872F99278F832FB7F8942E
S11333B0332780911003909111032FBFFD01848363
S11333C0892F992785832FB7F89433278091170184
S11333D0909118012FBF8887892F99278987319663
S11333E0818129819927982F882733272064386879
S11333F0822B932B8983892F99278183435F4C9355
S11334004D5080911A01882359F010921A01642FAB
S1133410CD010E9435199927282F8823A9F417C0B4
S1133420842F992790934D0380934C03B0934501C7
S1133430A09344018EE00E942B0280911A018823FC
S113344049F489E090E00AC08FEF80931A01822F3B
S1133450992704C01092280380E090E0DF91CF9177
S113346008951F9380912F019927019665E070E0DC
S11334700E94FB45682F80932F0110E0462F5527AB
S1133480FA01EE0FFF1FE25FFB4FA081B18110979D
S113349099F0E62FE695E695E695FF27E158F54F76
S11334A0808199279A012770307002C0959587957D
S11334B02A95E2F780FF0DC0CA01019665E070E02D
S11334C00E94FB45682F1F5F1530C1F610932F0132
S11334D019C060932F016530A8F42C912D50332727
S11334E0FD0167817727762F662786819927682BC8
S11334F0792BAD0183850E94C719882319F087E1D0
S11335000E942B021F910895CF93DF93582FFB0144
S1133510853018F081E090E033C0C82FDD27CC0F50
S1133520DD1FC25FDB4F88819981892B19F085E00B
S113353090E026C079836883435F40834D50809137
S11335402F01853018F480E090E01AC083856781EC
S11335507727762F662726813327622B732B509388
S11335602F01242FAF010E94C7199927282F8823E0
S113357029F085E080932F0119821882822F9927E0
S1133580DF91CF910895AF92BF92CF92DF92EF92E5
S1133590FF920F931F93BC018091CF01882309F4FC
S11335A079C080910603882309F074C081E0809378
S11335B0060360938601872F9927809385018EEDFA
S11335C06030780721F0AA24BB24650108C0A090CC
S11335D06001B0906101C0906201D0906301A0923B
S11335E08A0111270D2DFC2CEB2CE0928901960108
S11335F044275527209388018D2D9927AA27BB2777
S1133600E5E8F1E08283FF2400271127102F0F2D16
S1133610FE2CEE24B82FAA2799278827332744277E
S11336205527A90133272227822B932BA42BB52BB3
S11336302A2D332744275527822B932BA42BB52BD4
S1133640E82AF92A0A2B1B2BE114F10401051105C0
S113365011F410E010C060507E4D21F41AE06EEFBA
S113366074E003C010E060E070E0412F55278BE860
S113367091E00E94AC458FEF80937F01809380019D
S113368080E6809384011A5F412F69E771E083E04B
S11336900E94841A1F910F91FF90EF90DF90CF90BA
S11336A0BF90AF900895CF93DF938FB7F894282FEE
S11336B03327422F909176018091E70A981741F4BD
S11336C08091CD01882321F41092B5012FBF41C010
S11336D04FBFE091E70AFF27EE0FFF1FEE57FC4FA5
S11336E00190F081E02D21856581A6814781808547
S11336F05527542F44279927482B592B83859CE021
S1133700EF01392F19923A95E9F7B896EF0119921A
S11337109A95E9F7B8974087452F5527418733276E
S11337207727762F6627BB276A2B7B2BAF010E9456
S1133730C719882349F48FB7F89499272BB334E039
S113374023272BBB8FBF05C00E94560A81E00E942D
S11337502B02DF91CF910895BF92CF92DF92EF9227
S1133760FF920F931F93B82E8091B401882339F0F0
S113377085E080935D018BE10E942B021DC08B2D9F
S11337809927FC01EE0FFF1FE80FF91FED5FFD4FB6
S113379020813181BB2011F461E601C060E651E073
S11337A0C52ED12CEE24FF2400E010E040E08AE096
S11337B00E94C414B09221041F910F91FF90EF90C6
S11337C0DF90CF90BF900895CF92DF92EF92FF9257
S11337D00F931F938091B401882339F085E080937F
S11337E05D018BE10E942B0229C040912404842FA7
S11337F09927FC01EE0FFF1FE80FF91FDF01AD5FF2
S1133800BD4F2D913C91EB5FFD4F808182FF06C03F
S1133810442311F068E807C069E805C0442311F0A7
S113382063E801C066E871E0C72ED12CEE24FF24C2
S113383000E010E040E089E00E94C4141F910F9161
S1133840FF90EF90DF90CF9008951F93182F81E0A1
S113385090E090934101809340011092D8010E941E
S113386014178FB7F894992710933A018FBF84E007
S11338700E942B021F910895BF92CF92DF92EF9284
S1133880FF920F931F93B82E80915C01882319F047
S113389085E090E04CC0EB2DFF27E931F105B8F449
S11338A0EF56FF4FEE0FFF1F0590F491E02D0994A2
S11338B082E00E94E0039927282F882349F481E0BD
S11338C080935C01B092C10A80E090E030C021E0B6
S11338D0822F99272CC0CC24DD24760100E010E04F
S11338E020E030E040E050E060E0E2CFCC24DD2492
S11338F0760100E010E020E030E040E050E063E0DA
S1133900D7CFCC24DD24760100E010E020E030E0C5
S113391040E050E061E0CCCFCC24DD24760100E02F
S113392010E020E030E040E050E062E0C1CF1F91C1
S11339300F91FF90EF90DF90CF90BF900895CF92BA
S1133940DF92EF92FF920F931F93982F80915C0167
S1133950882319F085E090E04AC0E92FFF27E93178
S1133960F105A8F4E655FF4FEE0FFF1F0590F49103
S1133970E02D099483E00E94E0039927282F8823EF
S113398039F481E080935C0180E090E030C021E074
S1133990822F99272CC0CC24DD24760100E010E08E
S11339A020E030E040E050E060E0E4CFCC24DD24CF
S11339B0760100E010E020E030E040E050E063E019
S11339C0D9CFCC24DD24760100E010E020E030E003
S11339D040E050E061E0CECFCC24DD24760100E06D
S11339E010E020E030E040E050E062E0C3CF1F91FF
S11339F00F91FF90EF90DF90CF900895813051F0B8
S1133A00813030F0823041F0833041F081E009C0F0
S1133A1085E105C088E103C086E101C087E10E9419
S1133A209F1C99270895AF92BF92CF92DF92EF9295
S1133A30FF920F931F930E946C047B018C01609191
S1133A404304709144048091450490914604A090ED
S1133A506D01B0906E01C0906F01D0907001A114FF
S1133A60B104C104D10409F44EC0EFB7F894209115
S1133A70D70420FD36C0A8019701261B370B480B3D
S1133A80590B2A153B054C055D05C8F4A21AB30A67
S1133A90C40AD50A80916D0190916E01A0916F01C5
S1133AA0B0917001821B930BA40BB50B80936D0135
S1133AB090936E01A0936F01B093700115C081E0E3
S1133AC090E0A0E0B0E080936D0190936E01A0932C
S1133AD06F01B093700111E0A12EB12CC12CD12C37
S1133AE003C02E7F2093D7048E2F99278FBF0E9467
S1133AF06C04AB01BC01B1E0EB2E9601850183E0BF
S1133B000E944D0405C080914B048D7F80934B042B
S1133B101F910F91FF90EF90DF90CF90BF90AF90E7
S1133B200895FF920F931F93CF93DF93F82E282FBE
S1133B3033278BE090E0289FE001299FD00D389F28
S1133B40D00D1124C559DE4F81E090E0998388831C
S1133B501A868A819B81AC81BD810097A105B1053C
S1133B60A1F00FB7F8941127C9010E9438080FBFBC
S1133B701A821B821C821D821E821F82188619864D
S1133B808F2D0E94BA150E94131DDF91CF911F91B2
S1133B900F91FF90089580509E4D19F480E00E948B
S1133BA0911D08959C018091AF01882309F455C0AB
S1133BB0AEEFB4E0F9018AE001900D928150E1F793
S1133BC08091600190916101A0916201B0916301C3
S1133BD0CD01AA27BB270196A11DB11D80936001C9
S1133BE090936101A0936201B09363010097A105D2
S1133BF0B10561F481E090E0A0E0B0E08093600161
S1133C0090936101A0936201B093630120916001DC
S1133C10309161014091620150916301A901332700
S1133C20222780910D0190910E01AA27BB27280F0E
S1133C30391F4A1F5B1F2093600130936101409339
S1133C4062015093630180E09EED0E94C31A80E0FC
S1133C500E94911D8EE10E942B020895EF92FF9223
S1133C600F931F93CF93DF930FB7F894112781E03D
S1133C700E94C80B31E0E32EF12CF0924101E09256
S1133C804001109242011092D801109276020FBFA7
S1133C900FB7F89411270E946C0BF092FF01E09289
S1133CA0FE011092090389B78F7B89BF80E488BF26
S1133CB08AB780628ABF8AB78F7E8ABF89B78064D9
S1133CC089BF0FBF8FB7F894C82FDD2780913B01C0
S1133CD090913C01049719F483E00E946816CFBFC9
S1133CE00FB7F8941127C09A80E00E946D170FBF98
S1133CF08FB7F894992722E02093F1048FBF809125
S1133D006D0190916E01A0916F01B09170010097C7
S1133D10A105B10531F510926D0110926E0110925A
S1133D206F01109270011092710110927201109241
S1133D307301109274011092750180E00E94BA150B
S1133D400FB7F894112780E090E00E9438080FBF65
S1133D500E94131D80E00E94911D81E08093AF01B9
S1133D6003C080E00E94911D81E08093CF011092F6
S1133D70CD01DF91CF911F910F91FF90EF900895A6
S1133D80AF92BF92CF92DF92EF920F931F93209145
S1133D90E70433272150304081E090E0A0E0B0E018
S1133DA004C0880F991FAA1FBB1F2A95D2F78093BE
S1133DB0E3049093E404A093E504B093E6040E9422
S1133DC0B204A090E304B090E404C090E504D09061
S1133DD0E604882799270894A108B108C108D108E6
S1133DE06A217B218C219D210894A11CB11CC11C3A
S1133DF0D11CA60EB71EC81ED91EA092E304B09211
S1133E00E404C092E504D092E6048091E8048E7F35
S1133E108093E804809142048D7F809342040E9441
S1133E206C04AB01BC01E1E0EE2E9601850182E059
S1133E300E944D041F910F91EF90DF90CF90BF909F
S1133E40AF9008958091E704893029F089E0809348
S1133E50E7040E94C01E089561E081E00E947F058E
S1133E608823E9F48FB7F894282F332780913B01F6
S1133E7090913C01892B11F02FBF20C081E090E08C
S1133E8090933C0180933B012FBFDD9A0E94DD0893
S1133E9024E130E040E050E00E949A090FC062E063
S1133EA081E00E949905882319F089E090E0089543
S1133EB061E081E00E949905882319F080E090E098
S1133EC0089585E090E00895EF92FF920F931F9379
S1133ED08091D703843090F41092C801F4E5EF2E5A
S1133EE0F12C012D112D29E732E040E050E060E093
S1133EF070E0809120030E94BA1105C00E942C1F1B
S1133F0083E08093C8011F910F91FF90EF90089573
S1133F10EF92FF920F931F938091C801823009F0B2
S1133F204EC08091D6019927982F88272091D701D8
S1133F303327822B932BE816F906A9F080912003EE
S1133F40813049F0813028F0823049F08330B9F56E
S1133F5008C08AE001C08DE00E943C1C30C08BE0A8
S1133F60FBCF8CE0F9CF4091CF024F5F4093CF025B
S1133F70809181024817B0F481E08093C8015527ED
S1133F80440F551F40585F4F66277727A2E0EA2E5B
S1133F90F12C012D112D26ED31E0809120030E949A
S1133FA0BA110DC0E091D703EF5FE093D703FF2769
S1133FB0E15FFE4F8081809320030E94641F1F9164
S1133FC00F91FF90EF900895CF92EF92FF920F938D
S1133FD01F938930E9F08A3038F4873099F08830BB
S1133FE0A8F4863001F50CC08231B1F0833118F4A5
S1133FF08131C9F40FC0833189F08431A1F410C038
S113400080E001C082E00E94881F0DC083E0FBCFE6
S113401081E0F9CF80E005C082E003C083E001C005
S113402081E00E94B5091F910F91FF90EF90CF900E
S113403008958091C801823019F0833071F4FBCF68
S1134040E091D703EF5FE093D703FF27E15FFE4FD3
S11340508081809320030E94641F08951F93CF934F
S1134060DF938FB7F894C82FDD271C2F8091400170
S1134070909141010897C9F489E00E94681683E091
S11340800E946D17C09A81E090E090934101809363
S113409040018FB7F894992723E020933A018FBF0A
S11340A084E00E942B02CFBF30C0C0988091E20A06
S11340B0882311F085E001C084E00E94681683FD26
S11340C009C080E00E94681683FF04C085E090E088
S11340D020E003C083E090E021E0909341018093CD
S11340E04001C09A1FBF222341F01092AD0183E02A
S11340F00E946D170E943E1608C00E94DD0820E44D
S113410031E040E050E00E949A09DF91CF911F9185
S113411008958FB7F8949927209140018FBF2430D8
S113412039F0283041F0223019F50E94EF18089533
S11341300E942E200895C09889E00E946816C09AB3
S113414083E00E946D172FB7F894332781E090E045
S113415090934101809340012FBF8FB7F894992722
S113416023E020933A018FBF84E00E942B0208953C
S113417083E00E946D17089578941F920F920FB6F2
S11341800F9211242F923F924F925F926F927F92DF
S11341908F929F92AF92BF92CF92DF92EF92FF9253
S11341A00F931F932F933F934F935F936F937F933B
S11341B08F939F93AF93BF93CF93DF93EF93FF932B
S11341C0C6B5D7B58FB7F894282E0E94DD089B0199
S11341D02C1B3D0B442755272B013C01421A530A43
S11341E0640A750A809140019091410185309105DE
S11341F021F0069709F0E0C0BFC086E090E09093FC
S113420041018093400131E0332E30920503109236
S1134210420180E00E94C80BE0912103F091220347
S113422041AABB27A72D962D852D80ABC301AA27B4
S1134230BB2787A7872D9927AA27BB2786A7E091A5
S11342402103F091220385A5882309F484C06081A9
S1134250655077274F01860E971EF4012081E18077
S11342608281A3809927AA27BB27BA2FA92F982F29
S11342708827332744275527522F442733272227BB
S1134280FF24002711278701FF24EE242E293F292C
S1134290402B512BBB24CC24DD242A293B294C2937
S11342A05D29822B932BA42BB52B84199509A60980
S11342B0B7098383292F3A2F4B2F552722839D013A
S11342C04427552721838B2F9927AA27BB2780832F
S11342D0C09824E0A40180E090E00E94870BC09A7B
S11342E0F4012081E1808281A3809927AA27BB273A
S11342F0BA2FA92F982F8827332744275527522FC1
S1134300442733272227FF24002711278701FF246E
S1134310EE242E293F29402B512BBB24CC24DD2411
S11343202A293B294C295D29822B932BA42BB52BBD
S1134330840D951DA61DB71D8383292F3A2F4B2F5E
S1134340552722839D014427552721838B2F9927A5
S1134350AA27BB278083E0912103F0912203818166
S113436085FF02C03092D80183E00E946D1787B7A1
S11343708F7E87BF84997AC01092050381E00E94E2
S1134380C80BE0912103F0912203818185FF0FC0C6
S113439087E090E090934101809340010E94DD0802
S11343A020E031E040E050E00E949A0903C080E040
S11343B00E94251C849B5AC080914201882391F558
S11343C080910503882371F511E0109305030E9481
S11343D0C80B80B32091710A283098F4E091770AD1
S11343E0E20FFF27E770F070EE0FFF1FEE0FFF1FC5
S11343F0E75EF54F40825182628273822F5F209381
S1134400710A10934201D0934603C09345038499E3
S11344102DC0992704E0969587950A95E1F7182F02
S1134420117001C010E0809105038130F9F41092FD
S113443005030E94C80B109242011123B9F4809124
S1134440450390914603C81BD90B2A9778F48091B1
S1134450710A882319F081508093710A8091210395
S113446090912203009711F00E94780B2FBEFF91C8
S1134470EF91DF91CF91BF91AF919F918F917F91F8
S11344806F915F914F913F912F911F910F91FF90E9
S1134490EF90DF90CF90BF90AF909F908F907F90E0
S11344A06F905F904F903F902F900F900FBE0F90A2
S11344B01F90189578941F920F920FB60F921124A3
S11344C01F932F933F934F935F936F937F938F9398
S11344D09F93AF93BF93EF93FF9387B78F7E87BF6D
S11344E078941FB7F8948091310390913203A0918E
S11344F03303B09134030097A105B10509F051C00D
S113450080914001909141018530910561F186309F
S1134510910530F48330910549F0049781F51AC070
S113452087309105F1F0089751F514C0869B0FC0B0
S113453084E090E090934101809340010E94DD0863
S113454027E030E040E050E00E949A0918C00E9441
S11345503E1615C00E945114882389F40E942E200F
S11345600EC080E00AC089E00E94681681E00E94C3
S1134570C80B83E00E946D1787E00E94251C809180
S11345803B0190913C01019771F482E090E090939B
S11345903C0180933B01DE98DE9A80E00E94DC13AC
S11345A002C00E94FA08812F99278FBFFF91EF91D3
S11345B0BF91AF919F918F917F916F915F914F9137
S11345C03F912F911F910F900FBE0F901F90189540
S11345D0EF92FF920F931F93CF93DF938B01809100
S11345E043039091440386FF40C18F7B8F3309F0CE
S11345F08EC1C0916901D0916A0158815093010222
S11346008091FE019091FF018530910509F443C02A
S11346108630910509F48AC0029709F01FC185E02C
S113462090E09093FF018093FE014091D401852F87
S113463099270196242F3327281739074CF1B79966
S113464006C00E9904C0451B41504093D4014091CB
S113465001024A32E8F44423A1F0BE016F5F7F4FA8
S1134660483018F047E050E007C086E090E09093AF
S1134670FF018093FE01552780E090E00E948206AE
S113468046C110920903C09A84E00E946D17E3C0EA
S11346900E9410183CC186E090E09093FF01809343
S11346A0FE0180911F03882309F439C0809112050B
S11346B08823A9F5898185FF32C08F814E812FB768
S11346C0F894332760913D0370913E032FBF9927DF
S11346D0982F88275527842B952B8617970759F0F1
S11346E08F812E819927982F88273327822B932B0C
S11346F08F5F9F4FA1F489818770813081F4C09AC4
S1134700C0988AE00E946816C09AC098409101023D
S113471047502896BE018FE30E948316F8C040914B
S11347200102475055272896BE01A6CFC09A809112
S1134730CE02882339F484E00E946D178091CE0262
S1134740882311F0B7990AC00E9B08C09091710A92
S1134750992321F0809101028B3038F48091690112
S113476090916A010E94780B3DC0913001F5E0916F
S1134770770AFF27EE0FFF1FEE0FFF1FE75EF54FCF
S11347802081318142815381E0916901F0916A0174
S113479021ABBB27A52F942F832F80ABCA01AA2757
S11347A0BB2787A7252F33274427552726A7809182
S11347B0770A9927019668E070E00E94FB45809390
S11347C0770A8091710A81508093710A882351F08D
S11347D08091690190916A010E94780B1092770A86
S11347E01092710A80910102FE01E80FF11D80818F
S11347F087FF31C0012B79F169816770E09169010C
S1134800F0916A01623019F5A0912103B09122035D
S1134810109709F180914001909141010797D9F4D3
S1134820ED019B8183819817B1F487B78F7E87BF91
S1134830908181E08CA7E90FF11D8291319688A7C0
S113484080818F7789A780E00E94251C04C0613095
S113485011F48BE02AC00E94DB1759C0109209039F
S1134860C09A84E00E946D1752C08E3309F04FC085
S1134870C09A80914001909141010897C9F4C09871
S113488089E00E946816C09A83E00E946D1781E057
S113489090E090934101809340018FB7F894992759
S11348A023E020933A018FBF84E00E942B022FC0A3
S11348B08091E20A882349F484E090E090934101D6
S11348C0809340010E942E2022C083E00E946D1735
S11348D083E090E090934101809340010E94B204F0
S11348E0DC01CB0166E371E00E94E7454BE0E42E76
S11348F0F12CE80EF91EF092C701E092C6010E9465
S1134900DD0800271127A80197010E949A09DF9169
S1134910CF911F910F91FF90EF9008951F920F92E6
S11349200FB60F9211242F933F934F935F936F937E
S11349307F938F939F93AF93BF93EF93FF932FB185
S1134940E091D304F091D404309739F08091D803E6
S11349509091D903E80FF91F20838091D803909197
S1134960D90301969093D9038093D80380E00E94E1
S1134970B00540917701509178018091D8039091CE
S1134980D9038417950718F40E9414061CC060917B
S1134990D3047091D4048091BC0A9091BD0A109202
S11349A0D4041092D3041092BD0A1092BC0A10923F
S11349B07801109277011092D9031092D8032FB185
S11349C020E00E94E822FF91EF91BF91AF919F9167
S11349D08F917F916F915F914F913F912F910F90A4
S11349E00FBE0F901F9018950F931F930FB7F89455
S11349F0112740917701509178016091D30470910F
S1134A00D4048091BC0A9091BD0A1092D4041092EF
S1134A10D3041092BD0A1092BC0A1092780110922D
S1134A2077011092D9031092D80320E00E94E82263
S1134A300FBF1F910F910895AF92BF92CF92DF9253
S1134A40EF920F931F93882389F00E94B2045B01B5
S1134A506C018FEF90E0A0E0B0E0A822B922CA2256
S1134A60DB2280E190E0A0E0B0E010C00E94B2043C
S1134A705B016C018FE790E0A0E0B0E0A822B922CE
S1134A80CA22DB2280E890E0A0E0B0E0A80EB91EC4
S1134A90CA1EDB1E0E946C04AB01BC0181E0E82E3F
S1134AA09601850181E00E944D041F910F91EF90C2
S1134AB0DF90CF90BF90AF900895EF920F931F9324
S1134AC08230E1F0833028F4882341F08130D9F535
S1134AD008C08330B1F18430B1F533C0109258016D
S1134AE032C080915901853071F580912303815042
S1134AF08093230380E00E941C2525C02091EB03B2
S1134B00E22FE695E695E695FF27E752FB4F2770DF
S1134B1081E090E002C0880F991F2A95E2F7809502
S1134B202081282320830E946C04AB01BC0191E006
S1134B30E92E02E010E020E030E081E00E944D0424
S1134B4002C0109206031F910F91EF900895EF9207
S1134B50FF921F9310912F01E12FFF27EE0FFF1FEC
S1134B60E25FFB4FE080F180118210820E94311AD3
S1134B7041E0B701812F0E945D251F91FF90EF90C6
S1134B800895FF920F931F93CF93DF9380917F0A31
S1134B90882301F131E0F32E00E010E0CEE0D4E010
S1134BA090917F0A892F8F2169F068817981198218
S1134BB018828F2D8095982390937F0A43E0802F4D
S1134BC00E945D250F5F1F4F22960830110511F0DA
S1134BD0FF0CE6CFDF91CF911F910F91FF900895C5
S1134BE00F931F93CF93DF93042F10912F01153050
S1134BF0A0F4E12FFF27EE0FFF1FE25FFB4FC08100
S1134C00D181C617D70749F4118210820E94311A44
S1134C10402FBE01812F0E945D25DF91CF911F910E
S1134C200F910895FF920F931F93CF93DF938FB744
S1134C30F8949927F0903A018FBF63E081E00E94D5
S1134C409905882359F10FB7F8941127109241015F
S1134C501092400187B78F7E87BF87B78F7D87BF4C
S1134C6083E00E946D17C09A0FBF0FB7F894112705
S1134C701092FF011092FE010E946C0BC09A89B73A
S1134C808F7B89BF0FBF10923C0110923B01DE98CD
S1134C90DD98DE9A83E00E942B0207C08FB7F89458
S1134CA0992722E02093F1048FBFC0914E03D09145
S1134CB04F030E94A3068091800A9091810A892B58
S1134CC079F48FEF80931A010B8511274F2DBE01C4
S1134CD0802F0E94F0254F2DBE01802F0E94771453
S1134CE0DF91CF911F910F91FF900895EF92FF9262
S1134CF00F931F93CF93DF930091440110914501CB
S1134D0060914C03C8010E943519C82FDD27CC23BC
S1134D10A1F08FEF80931A01E0904401F0904501D7
S1134D20F801038511274C2FB701802F0E94F0252D
S1134D304C2FB701802F0E947714DF91CF911F91E0
S1134D400F91FF90EF900895EF92FF920F931F93AE
S1134D50CF93DF93CDB7DEB722970FB6F894DEBFBB
S1134D600FBECDBF60915901862F8250823008F06A
S1134D70CBC0E090F704FF2400271127102F0F2D3C
S1134D80FE2CEE242091F504332744275527522F77
S1134D904427332722278091F6049927AA27BB2783
S1134DA0DC0199278827282B392B4A2B5B2B8091F0
S1134DB0F8049927AA27BB27282B392B4A2B5B2BCE
S1134DC0E22AF32A042B152B8091250190912601C8
S1134DD0A0912701B09128018E159F05A007B10766
S1134DE029F48091E80481608093E804623061F5DD
S1134DF080915B01882309F087C081E080935B0187
S1134E0083E00E9491278091250190912601A09131
S1134E102701B09128018093E903292F3A2F4B2FC2
S1134E2055272093E8039D01442755272093E70342
S1134E308B2F9927AA27BB278093E603809129010A
S1134E408093EA031092EB036091EB0377272FE240
S1134E5030E049ED54E0CE0101960E9448038823D6
S1134E6021F081E00E9491274FC089818093EB0358
S1134E7020912901422F5527662777271AE0440FEE
S1134E80551F661F771F1A95D1F726E1829FC0012F
S1134E901124AA27BB27480F591F6A1F7B1F809123
S1134EA05A01823079F08330B1F0813011F081E021
S1134EB01CC0B6E1EB2EF12C012D112D2CEE33E0AC
S1134EC082E011C0A6E1EA2EF12C012D112D2CEE69
S1134ED033E080E008C0F6E1EF2EF12C012D112D16
S1134EE02CEE33E081E00E946D11882369F00E946A
S1134EF06C04AB01BC01E1E0EE2E00E110E020E027
S1134F0030E081E00E944D0422960FB6F894DEBF93
S1134F100FBECDBFDF91CF911F910F91FF90EF9006
S1134F200895823040F490915901933011F09530F6
S1134F3011F410925B018093590108950F931F930C
S1134F408B019C0190915901892F8250823030F558
S1134F508091250190912601A0912701B09128010B
S1134F60081719072A073B074CF0081719072A07DF
S1134F703B0781F580912901481760F581E00E9483
S1134F8091271092D9041092DA041092DB04109243
S1134F90DC041092DD041092DE041CC094509230A4
S1134FA0C8F480912A0190912B01A0912C01B09119
S1134FB02D01081719072A073B074CF00817190792
S1134FC02A073B0739F480912E01841718F081E0F9
S1134FD080930A0A1F910F910895CF92EF920F9335
S1134FE01F9383E02C3E380769F580915901833083
S1134FF049F5CC2021F081E00E94912723C08091C3
S11350002504909126048093E003892F99278093A7
S1135010E10382E58093E5034CE1B90162517040FC
S113502082E00E94841A882369F00E946C04AB0118
S1135030BC01A1E0EA2E00E110E020E030E081E0D4
S11350400E944D041F910F91EF90CF900895DF922D
S1135050EF92FF920F931F937B018C01D42E8091CA
S11350605901882319F481E00E949127E0922A01D2
S1135070F0922B0100932C0110932D01D0922E015C
S11350808FEF809350038093510380935203809356
S11350905303809354038093550380E090E01F9161
S11350A00F91FF90EF90DF90089580915901843023
S11350B0F1F580915B01882309F086C081E080933B
S11350C05B0185E00E94912780912504909126043C
S11350D08093E703892F99278093E60380910D013C
S11350E090910E018093E903892F99278093E80317
S11350F080912A0190912B01A0912C01B0912D0156
S11351008093ED03292F3A2F4B2F55272093EC033F
S11351109D01442755272093EB038B2F9927AA271A
S1135120BB278093EA0380912E018093EE03809144
S11351305901853009F048C080910A0A882331F06A
S113514080E00E941C2510920A0A0895809123038E
S1135150882321F481E00E949127089580915003CF
S11351608093EF03809151038093F0038091520365
S11351708093F103809153038093F203809154034D
S11351808093F303809155038093F4038091E603A5
S11351909927982F88272091E7033327822B932B75
S11351A08093E003892F99278093E10381E580931D
S11351B0E5034FE06AED73E081E00E94841A8823DE
S11351C019F080E00E941C2508958F929F92AF925F
S11351D0BF92CF92DF92EF92FF920F931F93CF93E0
S11351E0DF93CDB7DEB728970FB6F894DEBF0FBEB6
S11351F0CDBF4B015C01CC24DD24E8E2F4E0608502
S113520061FF22C12081318142815381E480F58094
S113521006811781D501C401821B930BA40BB50B26
S11352208E159F05A007B10708F40EC160FF03C0E7
S11352306D7F608708C02E0D3F1D401F511F2083C6
S113524031834283538383E0C81609F46FC08C15FD
S113525040F081E0C81671F082E0C81609F0FDC084
S11352600EC085E0C81609F496C086E0C81609F099
S1135270F4C0A5C00E9455280E94A426EEC08091C7
S1135280E80480FD2FC080915801882359F580914E
S11352900D0190910E0180931602892F9927809316
S11352A0150282E08093170210921802A9E1B2E07D
S11352B0E5EFF4E089E001900D928150E1F78FEF82
S11352C080930F028093100280E5809314024EE0D5
S11352D069E072E080E00E94841A882319F481E076
S11352E08093580190E080915901823008F091E058
S11352F08091E804992319F08170846007C0982F85
S1135300969531F09150990F8170892B8093E80420
S11353108091E8048E7F39F48091E704863118F493
S11353208F5F8093E7040E94C01E97C020914704BA
S1135330309148044091490450914A0480916D0190
S113534090916E01A0916F01B09170010097A10539
S1135350B105F1F082179307A407B507C9F480914A
S11353607501882361F42FB7F894332780912204C0
S11353708160809322042FBF8FE10E942B0280E082
S113538090E00E94380880E00E94BA1510927501DE
S11353900E94131D62C080916801882309F05DC0DA
S11353A082E10E947A08882319F082E10E94401366
S11353B080916801882309F050C0D99A4EC0809129
S11353C008059927853021F0863009F046C014C0BD
S11353D040E050E060E070E080910D050E945108CB
S11353E06093C2017093C3018093C4019093C5017B
S11353F080E00E94DF1231C08FB7F89448E050E09B
S11354008E010F5F1F4FB80180EF9FE00E94E306FB
S113541020910D0130910E0189819A8182179307A1
S113542049F03A83298348E050E0B80180EF9FE0D7
S11354300E94F50688E190E029E00FB6F894A8955B
S113544081BD0FBE21BDFFCF0894C11CD11C39966C
S113545087E0C816D10409F0D2CE8DE00E942B0259
S113546028960FB6F894DEBF0FBECDBFDF91CF9163
S11354701F910F91FF90EF90DF90CF90BF90AF906E
S11354809F908F900895809142048D7F8093420471
S1135490809139048D7F8093390480E00E949127A4
S11354A08FEF90E0A0E0B0E080932A0190932B016D
S11354B0A0932C01B0932D019FEF90932E01109295
S11354C050031092510310925203109253031092FE
S11354D05403109255031092D9041092DA041092D6
S11354E0DB041092DC041092DD041092DE0485E0EB
S11354F0809324019093F8041092F7041092F60418
S11355001092F5049093F9049093FC041092E7042C
S113551080E090E00895EF92FF920F931F938091A3
S1135520FC04E82FFF278091F904E817A0F56091A7
S1135530F704772788279927982F872F762F6627B0
S1135540E090F504FF24002711271E2D0027FF24D7
S1135550EE242091F604332744275527A901332745
S11355602227E22AF32A042B152B2091F80433274F
S113557044275527E22AF32A042B152B6E297F2969
S1135580802B912B4E2F0E94272884E08093E804DF
S11355900E94221F1BC04FEF6FEF70E080E090E08D
S11355A00E9427280E94432A81E08093240180914D
S11355B0AE01823031F0833031F0813039F485E04E
S11355C003C083E001C084E00E949F1C1F910F91DF
S11355D0FF90EF90089583E0809324018091C901A6
S11355E09091CA01A091CB01B091CC018093F804B1
S11355F0292F3A2F4B2F55272093F7049D01442739
S113560055272093F6048B2F9927AA27BB2780932D
S1135610F5048091CF049091D004A091D104B0916D
S1135620D2040197A109B1093AE0B695A7959795D7
S113563087953A95D1F78F5F8093F9041092FC0413
S113564045E065EF74E080E090E00E94B806809346
S1135650FB04892F99278093FA04809124018330D5
S113566011F40E94221F84E0809324018091AE01F2
S113567080935A010E948B2A0895CF92EF92FF9251
S11356800F931F93CF93DF93CDB7DEB722970FB657
S1135690F894DEBF0FBECDBF80910E03482F55276F
S11356A08CE190E0489FF001499FF00D589FF00D68
S11356B01124CF018757954F2817390709F0F0C0F7
S11356C0CC2071F08FEF809350038093510380932B
S11356D05203809353038093540380935503D7C09C
S11356E0E857F54F20813327E22FE695E695E695B6
S11356F0FF27E05BFC4F2770307081E090E002C030
S1135700880F991F2A95E2F780952081282320830A
S1135710CA01019662E070E00E94FB4580930E038B
S1135720809100028150809300022FE230E040E536
S113573053E060E070E0CE0101960E9448038823A4
S113574009F4A8C060912E01E090F704FF2400271B
S11357501127102F0F2DFE2CEE242091F504332752
S113576044275527522F4427332722278091F604B4
S11357709927AA27BB27DC0199278827282B392BAF
S11357804A2B5B2B8091F8049927AA27BB27282B47
S1135790392B4A2B5B2BE22AF32A042B152B8091FD
S11357A02A0190912B01A0912C01B0912D018E150D
S11357B09F05A007B10709F067C08091FC04681732
S11357C009F062C06F5F6093FC0445E065EF74E02C
S11357D080E090E00E94B8068093FB04892F99270B
S11357E08093FA048091FC04E82FFF278091F90448
S11357F0E81718F40E948B2A47C06091F7047727B2
S113580088279927982F872F762F6627E090F5040D
S1135810FF24002711271E2D0027FF24EE242091AA
S1135820F604332744275527A90133272227E22AE0
S1135830F32A042B152B2091F804332744275527EA
S1135840E22AF32A042B152B6E297F29802B912B16
S11358504E2F0E94272881E0809324018091AE017D
S1135860823041F0833041F0813011F081E007C093
S113587085E003C083E001C084E00E949F1C88236C
S113588019F085E10E942B0281E00E949127109279
S1135890000206C080910002882311F00E94781251
S11358A022960FB6F894DEBF0FBECDBFDF91CF9125
S11358B01F910F91FF90EF90CF900895CF92EF92A8
S11358C0FF920F931F938531C1F0863138F48430F1
S11358D071F0853081F08330C1F507C08731E9F07C
S11358E0873198F0883189F520C082E001C083E0D7
S11358F00E943D2B2AC081E0FBCF80916801823059
S113590021F5265C3A4009F517C080916801823080
S1135910E1F4265C3A40C9F40FC0809168018230FA
S1135920A1F4265C3A4089F407C080916801823072
S113593061F4265C3A4049F41092680141E050E079
S113594060E070E08C2D0E94E2071F910F91FF90A0
S1135950EF90CF9008958F929F92AF92BF92CF9283
S1135960DF92EF92FF920F931F934B015C01690149
S11359707A010E94432A82E0809324018092F804F1
S1135980BB27AB2D9A2D892D8093F704C501AA2737
S1135990BB278093F6048B2C9924AA24BB248092E1
S11359A0F5040894C108D108E108F1083AE0F69436
S11359B0E794D794C7943A95D1F7C394C092F90465
S11359C0C092FC0445E065EF74E080E090E00E9442
S11359D0B8068093FB04892F99278093FA04809159
S11359E02401823011F40E94221F84E08093240158
S11359F000935A014091F90455276091F7047727E1
S1135A0088279927982F872F762F6627C090F5042B
S1135A10DD24EE24FF24FC2CEE24DD24CC24009190
S1135A20F604112722273327980111270027C02ABB
S1135A30D12AE22AF32A0091F804112722273327D6
S1135A40C02AD12AE22AF32A6C297D298E299F298A
S1135A500E94272880E090E01F910F91FF90EF9023
S1135A60DF90CF90BF90AF909F908F9008958F92CA
S1135A709F92AF92BF92CF92DF92EF92FF920F93D9
S1135A801F93CF93DF93E82FE9018091C801813000
S1135A9009F4C5C1813008F468C1843009F0FFC13C
S1135AA083E08093C8018091090A882321F0813022
S1135AB009F0F5C176C0AA80BB24CC24DD24DC2CFB
S1135AC0CB2CBA2CAA242881332744275527522FBC
S1135AD044273327222789819927AA27BB27DC015A
S1135AE099278827282B392B4A2B5B2B8B819927C5
S1135AF0AA27BB27282B392B4A2B5B2BA22AB32A94
S1135B00C42AD52AE0901803FF2400271127102F58
S1135B100F2DFE2CEE2420911603332744275527FE
S1135B20522F442733272227809117039927AA2726
S1135B30BB27DC0199278827282B392B4A2B5B2B81
S1135B40809119039927AA27BB27282B392B4A2B85
S1135B505B2BE22AF32A042B152BAE14BF04C006D8
S1135B60D106C9F480911503843099F440E050E0E3
S1135B7060E070E08E2F0E9451086093C201709320
S1135B80C3018093C4019093C50180E00E94DF1299
S1135B9086C181E001C082E0809366010E94D00842
S1135BA07EC1E0930D058C2D0E942208CC2009F0C3
S1135BB076C1809108058350823008F070C1EA8074
S1135BC0FF2400271127102F0F2DFE2CEE242881EF
S1135BD0332744275527522F4427332722278981E7
S1135BE09927AA27BB27DC0199278827282B392B3B
S1135BF04A2B5B2B8B819927AA27BB27282B392B70
S1135C004A2B5B2BE22AF32A042B152BE0920C057A
S1135C10BB27A12F902F8F2D80930B05C801AA2796
S1135C20BB2780930A05E12EFF2400271127E09269
S1135C300905FE013496E280FF2400271127102F66
S1135C400F2DFE2CEE242C81332744275527522F69
S1135C5044273327222781819927AA27BB27DC01E0
S1135C6099278827282B392B4A2B5B2B838199274B
S1135C70AA27BB27282B392B4A2B5B2BE22AF32A92
S1135C80042B152BE0921105BB27A12F902F8F2DEC
S1135C9080931005C801AA27BB2780930F05E12E26
S1135CA0FF2400271127E0920E0588E095E00E946A
S1135CB0D21D00910D05112720911005332744278B
S1135CC05527542F432F322F2227C0900E05DD2451
S1135CD0EE24FF24FC2CEE24DD24CC2480910F053B
S1135CE09927AA27BB27DC0199278827C82AD92AFC
